:100000000C9407030C94C6270C9424030C9424032B
:100010000C9424030C9424030C9424030C942403C4
:100020000C9424030C9424030C94E6200C94A2203A
:100030000C94F1210C9424030C9424030C942403B9
:100040000C9424030C9424030C9424030C94240394
:100050000C9424030C94CD210C9424030C942403BD
:100060000C9424030C9424030C9424030C94240374
:100070000C9424030C9424030C9424030C94240364
:100080000C9424030C9424030C9424030C94240354
:100090000C9424030C9424030C9424030C94240344
:1000A0000C9424030C9424030C94240305A84CCD35
:1000B000B2D44EB93836A9020C50B9918688083CA2
:1000C000A6AAAA2ABE000000803F05010902A101DC
:1000D00085020901A100050919012908150025015A
:1000E0009508750181020501093009311581257FC7
:1000F00095027508810609381581257F95017508D7
:100100008106050C0A38021581257F950175088145
:1001100006C0C005010980A101850319012AB700A5
:10012000150126B700950175108100C0050C090165
:10013000A101850419012AA002150126A00295013A
:1001400075108100C005010906A101850605071982
:10015000E029E715002501950875018102050719B9
:100160000029EF1500250195F07501810205081998
:10017000012905950575019102950175039101C04D
:100180000660FF0961A1010962150026FF009520A4
:10019000750881020963150026FF009520750891F6
:1001A00002C005010906A101050719E029E71500AC
:1001B00025019508750181029501750881010507E2
:1001C000190029FF150026FF009506750881000516
:1001D000081901290515002501950575019102955C
:1001E0000175039101C00000000000000000000044
:1001F00000000000000000000000000000000000FF
:10020000000000000000000000007E0F00D4FFFF8F
:10021000FFC70000007800000000000000002A2B4B
:1002200028000000000000000000000000000000A6
:100230000029000000002C1E34202122243426270F
:10024000252E362D3738271E1F2021222324252630
:100250003333362E37381F0405060708090A0B0CFE
:100260000D0E0F101112131415161718191A1B1C46
:100270001D2F3130232D350405060708090A0B0C04
:100280000D0E0F101112131415161718191A1B1C26
:100290001D2F3130354C29001E001F002000210089
:1002A0002200A8002B0014001A00080015001700F7
:1002B0002800E20004001600070009000A003801C7
:1002C000E1001D001B000600190005004C00E000C5
:1002D000E300E200447E2A002C00417ED10023008E
:1002E00024002500260027004600D1001C0018002D
:1002F0000C00120013008900D1000B000D000E004D
:100300000F0033003400D100110010003600370018
:100310003800E500427E28002D00437E3000320088
:100320002F0029003B003B003C003D003E00440004
:100330002B001701D100520843022B066800E2008F
:100340001A0150082B054F082B046900E10016081C
:100350003D04510817082B084C00E000E300E200C0
:1003600001002A002C0001002E003F004000410047
:100370004200430048002B0355005F00600061000D
:10038000560089002B0154005C005D005E005700A0
:100390004C7ED300340059005A005B002E00E5006B
:1003A000010028002D00620063004B7E4A7E290078
:1003B0003B003B003C003D003E0044002B0014008D
:1003C0001A000800150017006800E200040016007B
:1003D000070009000A006900E1001D001B0006007B
:1003E000190005004C00E000E300E200447E2A0012
:1003F0002C00010045003F00400041004200430046
:100400004800B700D1004A0052004D0043022900C5
:10041000B6004A00500051004F004D004F7ED300FF
:100420004E00477E467E457E4B00E5000100487E3B
:100430008700437EDC004E7E4D7E29003B003B0062
:100440003C003D003E0044002B006A006B006C0045
:100450006D006E00D100E2006A016B016C016D015C
:100460006E01D200E1006A026B026C026D026E0244
:100470004C00E000E300E200447E2A002C00010072
:1004800045003F0040004100420043004800D200C8
:100490006F0070007100720073002900D1006F01BD
:1004A00070017101720173012900D3006F027002A3
:1004B000710272027302E50001002800870001004A
:1004C000DC0000002F0029003A003B003C003D000A
:1004D0003E0044002B001E021F02200221022202C5
:1004E0002800E2001E041F0420042104220444000A
:1004F000E1003A003B003C003D003E004C00E000C3
:10050000E300E20001002A002C00417E45003F008C
:10051000400041004200430046002E002302240216
:10052000250226022702290045002304240425046D
:10053000260427043400D3003F004000410042005D
:100540004300E500427E28002D00437E300032004B
:100550002F00DA00D900D900DA00DA00D900D9007A
:10056000DA00DA00D900D900DA00AA00A900A9004F
:10057000AA00AA00A900A900AA0009025B000301C1
:1005800000A0FA0904000001030101000921110182
:10059000000122440007058103080001090401004D
:1005A00002030000000921110100012222000705B9
:1005B0008203200001070503032000010904020053
:1005C000010300000009211101000122B600070506
:1005D00084032000011201000200000008ABAA02FF
:1005E000000001010200010E034D006F006F006F5B
:1005F0000073006500000010036100740061007268
:100600000075006E006F000000040309040011244F
:100610001FBECFEFDAE0DEBFCDBF23E0A2ECB1E03A
:1006200001C01D92A034B207E1F711E0A0E0B1E0F3
:10063000E6EAF8E502C005900D92A23CB107D9F7B1
:100640000E9418220C94172C0C940000482F209123
:100650003F039091060357E0291302C080E00895FC
:1006600030E0529FF001539FF00D1124E95FFC4FE1
:100670008181681306C08081481303C08581811180
:10068000EECF2F5F3F4F2770E7CFE8EDF0E080819E
:100690008E7F80831092E2001092DA001092E100C7
:1006A000A0EEB0E08C9181608C9380818F77808305
:1006B00019BCA7EDB0E08C918E7F8C9380818F7EEA
:1006C00080831092F00208952091E4003091E500BB
:1006D00095E6A9012091EC00822F817020FF06C0D1
:1006E0008091E80080FF06C080E008952091E80036
:1006F00022FD1AC08091FC02882389F0853089F0A0
:100700008091EB0085FD0FC02091E4003091E50061
:1007100042175307F9F29150E1F684E0089582E020
:10072000089583E0089581E008958091FE0287FF97
:1007300013C08091E80082FF06C08091E8008B77AB
:100740008093E80004C08091FC028111F2CF0895EB
:100750008091FC028823D9F38091E80080FFF8CFD4
:100760008091E8008E77ECCF982F9093E900242FAA
:10077000762F50E0891731F07091EC002091ED0058
:100780005091F00021FD07C09F5F973071F7809373
:10079000E90081E008953091EB003E7F3093EB005B
:1007A0003091ED003D7F3093ED003091EB003160F2
:1007B0003093EB007093EC002093ED005093F00029
:1007C0002091EE0027FDE0CF80E00895B0E0A0E0AA
:1007D000ECEEF3E00C94EC28C8EDD0E088818F7E3D
:1007E0008883E7EDF0E080818160808384E082BFD0
:1007F00081E08093F00288818E7F888302EE10E092
:10080000F80110821092DA0081EEC82ED12CF60188
:10081000108288818F778883888180688883888127
:100820008F7D888319BC1092FC021092FD021092F9
:10083000FB021092FA0290EEE92EF12CF701808172
:100840008B7F808388818160888342E060E080E0E4
:100850000E94B403F60180818E7F8083F80180813D
:1008600081608083808188608083F70180818E7FB2
:100870008083888180618883CDB7DEB7E8E00C94FF
:100880000829FC01809104039091050386179707BE
:10089000A0F06115710529F49091E8009E7790937E
:1008A000E80090E06115710551F4911108C0809144
:1008B000E80082FF34C080E00895BC01F2CF80914F
:1008C000FC028823C1F18530C1F18091E80083FDED
:1008D00030C08091E80082FDEACF8091E80080FF7F
:1008E000E1CF8091F3002091F200382F611571055E
:1008F00019F02830310558F091E02830310509F021
:1009000090E02091E8002E772093E800CBCF8191F2
:100910008093F100615071092F5F3F4FE7CF8091C5
:10092000FC02882341F0853041F08091E80083FF8C
:10093000BECF81E0089582E0089583E0089587E7BF
:1009400097E7909301088093000888E19AE00FB63A
:10095000F894A895809360000FBE90936000FFCF3D
:100960002FB7F8946091EC027091ED028091EE0245
:100970009091EF022FBF08952FB7F8948091EC0269
:100980009091ED02A091EE02B091EF022FBF089579
:10099000809158010895DC01FB0111969C911197FB
:1009A0008181981322C012968C911297882319F096
:1009B000928189131AC013968C911397882319F08A
:1009C0009381891312C015968C911597882319F07D
:1009D000958189130AC014969C91992321F081E096
:1009E0002481291303C080E001C081E08170089553
:1009F000909159019130D1F49091E90297FF16C07E
:100A0000E82FE695E695E695EE31E0F4F0E0E45364
:100A1000FE4F282F277081E090E001C0880F2A95B3
:100A2000EAF780959281892382830895E6ECF1E0CC
:100A30009191891303C0DF0111971C9291E0EC3C66
:100A4000F907B1F70895909159019130C1F490914F
:100A5000E90297FF14C0E82FE695E695E695EE319A
:100A6000F8F4F0E0E453FE4F877021E030E001C07D
:100A7000220F8A95EAF78281822B82830895A6EC61
:100A8000B1E0EFEF90E02D91821751F0EF3F19F4B4
:100A9000211101C0E92F9F5F9630A9F7EF3F09F4BC
:100AA00008950E2E000CFF0BEC53FE4FE6CFA3E093
:100AB000B0E0EDE5F5E00C94F2282091E7023091EA
:100AC000E80228173907A1F09093E8028093E70223
:100AD000E091E502F091E602309751F024E029839D
:100AE0009B838A830084F185E02DCE0101960995D0
:100AF0002396E2E00C940E29A3E0B0E0E2E8F5E0F2
:100B00000C94F2282091E3023091E402281739076F
:100B1000A1F09093E4028093E302E091E502F0916A
:100B2000E602309751F023E029839B838A83008477
:100B3000F185E02DCE01019609952396E2E00C9413
:100B40000E29E091E502F091E602309739F022E0BB
:100B5000DC012C930680F781E02D099508958091A2
:100B6000E102882359F0E091E502F091E602309726
:100B700029F00190F081E02D0995089580E0089515
:100B80000E94BC049C019091DD028091DE02982BB2
:100B900021F03093DA022093D9029091DF02809104
:100BA000E002982B21F03093D8022093D7028BEDEE
:100BB00092E00E94A10508958091D60280FD16C0A2
:100BC00081FD16C082FD16C08091D5028823A1F058
:100BD000883280F428E0829FC001112468E270E02E
:100BE0000E942D29862F672B39F0089582E0089501
:100BF00084E0089588E0089581E008958091D60208
:100C000080FD14C081FD14C082FD16C08091D40205
:100C1000882381F08E3180F420E5829FC001112469
:100C20006EE170E00E942D29862F089584E10895D9
:100C300088E2089588E0089580E50895282F35EB2F
:100C40002303C001112497FF04C080589109892F04
:100C5000089580589F4FFBCFFC01680F791F8FEFDD
:100C600091E32191822728E030E087FF09C0880FB7
:100C7000892721503109C9F7E617F70791F7089539
:100C8000880FF7CF21E9611126E3E22FE295EF709B
:100C9000F0E080A190E02F7002C0959587952A958D
:100CA000E2F78170089581E9611186E3E82FE2950A
:100CB000EF70F0E041A18F7021E030E0B90102C097
:100CC000660F771F8A95E2F7CB01962F90959423B4
:100CD00091A392A1892B82A308959091CE02E92F2E
:100CE000F0E04091CF029F012F5F3F4F23703327E9
:100CF00042171306A9F0E053FD4F282F2F7780816C
:100D00008078822B60FB87F980839F5F937090933C
:100D1000CE028091CC028F5F8093CC0281E0089557
:100D200080E00895299A0895299808952091E20273
:100D3000211103C00E94650A08959093CA0280930E
:100D4000C902089580E0089581E08093A402089587
:100D5000F894E82FE295EF70F0E031A1282F2F7082
:100D600081E090E001C0880F2A95EAF7982F9095CE
:100D7000932391A392A1892B82A3789408959091B3
:100D8000E90292FF10C041E0282F2471243009F0BD
:100D900040E031E0282F2871283009F030E0431777
:100DA00011F02CE0822793FF10C041E0282F24711E
:100DB000243109F040E031E0282F2871283109F072
:100DC00030E0431711F02CE082273091EA0230FF27
:100DD00010C051E0282F2171213009F050E041E08E
:100DE000282F2871283009F040E0541711F029E02D
:100DF000822731FF10C041E0282F2171213109F0F5
:100E000040E031E0282F2871283109F030E0431705
:100E100011F029E0822794FD877E0895823891059C
:100E2000B9F1B0F48133910509F47DC048F48932F9
:100E3000910509F46DC08A32910509F47BC00895CB
:100E40008533910509F45FC08933910509F108954F
:100E5000833E9105D9F138F4803E910529F1823E17
:100E6000910579F10895863E9105D9F1873E910566
:100E700009F43EC0843E910541F52091EA0221FF2C
:100E800024C08091E90284FD19C087EE90E00895A6
:100E90002091E902237009F05AC02091EA0223FF51
:100EA00014C089E290E008952091E90220FD38C045
:100EB0003091EA0230FF09C024FF43C090E080E097
:100EC00008952091E90222FDF7CF08952091E902CB
:100ED00022FD3AC03091EA0230FD39C024FFF5CF3F
:100EE000EDCF2091E90223FFF0CF24FDE7CFCDCF56
:100EF0002091E90223FD2EC03091EA0231FFEECFAE
:100F000084EE90E008952091E90225FFDECFC9CF5D
:100F10002091E90225FD21C02091EA0223FFD5CFCF
:100F200089E390E0D2CF2091E90226FFCECF8AE27A
:100F300090E008952091E90226FFC7CF81E390E079
:100F4000089583EE90E0089582EE90E0089580EE9B
:100F500090E0089586EE90E0089585E390E008958E
:100F60001F93CF93DF930E940E07EC01C11580E51C
:100F7000D807F0F5C11580E4D80708F09CC0C03E42
:100F8000D10520F5CD3CD10508F082C0C83AD10585
:100F900078F4C53AD10508F073C0C130D10519F114
:100FA000209709F1C430D105F0F4D0E0C0E01BC0B7
:100FB000C33CD105D0F7C85AD0E0CC0FDD1FC25AD0
:100FC000DE4F0990D881C02DD4640DC0C11580E2D8
:100FD000D80708F0D1C0C11581E0D80708F05AC081
:100FE000C83ED10510F7CE01DF91CF911F91089532
:100FF000C03682E5D80718F5C03482E5D80708F076
:101000006BC0C03282E5D80708F05FC0C11582E529
:10101000D80708F497C02C2F2695269580E2289FA4
:10102000900111248C2F8370C1E0D0E002C0CC0F5E
:10103000DD1F8A95E2F7C22BD32BDD68D4CFC03AEF
:1010400082E5D80760F4C03882E5D80708F459C0B3
:10105000CF71D0E0DC2FCC27C46FD06AC4CFC03CA6
:1010600082E5D80708F462C0C03E82E5D80708F0E0
:101070009CCFDC2FCC27CC27DF71C06FD06AB3CFD9
:10108000C55AD0E0C55ADE4FC881D0E0D064ABCF9E
:10109000D065A9CF8D2F0E94BF06182FCE019927AA
:1010A0000E940E07C12FD0E0DC2FCC27CC27DF71A8
:1010B000C82BD92B98CFCE0199270E940E07CC2799
:1010C000DF70C82BD92BD06A8ECFCF71D0E0DC2F48
:1010D000CC27C16FD06A87CF2C2F269526952770F5
:1010E00080E2289F900111248C2F8370C1E0D0E012
:1010F00002C0CC0FDD1F8A95E2F7C22BD32BDC6830
:1011000072CF2C2F26952695277080E2289F90017C
:1011100011248C2F8370C1E0D0E002C0CC0FDD1F02
:101120008A95E2F7C22BD32BDA685DCF8C2F8F71B3
:101130000E94BF06C82FD0E0DC2FCC27CC27DF7160
:10114000D06251CF8C2F8F710E94BF0655E0D6958B
:10115000C7955A95E1F7CF70D0E0DC2FCC27282F28
:1011600030E084FF05C044E0220F331F4A95E1F7C9
:10117000C22BD32BD06937CF8D2F8F710E94BF0622
:10118000182FCE0199270E940E07C12FD0E0DC2F27
:10119000CC27CC27DF71C82BD92BD2CF809590914B
:1011A000F10298239093F10208958091F1029091B9
:1011B0001F02892B90911E02992391F0892B909107
:1011C0005901913071F49091E90297FF0AC09EE1B4
:1011D0002EEC31E040E0915040F4411110921E029B
:1011E000089596E026EC31E0F5CFF90151919F0189
:1011F000552389F34F5FEFCF80913F039091060312
:10120000981301C008958F5F8770FACFA82FA77039
:1012100023E0969587952A95E1F7FC01EE0FFF1FD5
:10122000E80FF91FE60FF71F50E040E080E0219142
:1012300030E00A2E02C0369527950A94E2F7217015
:101240003327042E01C0220F0A94EAF7822B4F5F46
:101250005F4F4330510559F70895292F9A3068F4AC
:10126000873090F490E06BEF71E037E0239F800DC2
:10127000911D11240E94060908952C5F223020F44C
:1012800068EF71E090E0F6CF80E00895262F277098
:1012900091E001C0990F2A95EAF723E076956795CA
:1012A0002A95E1F7FB01EE0FFF1FE60FF71FE40F92
:1012B000F51F50E040E0682F70E08191DF01119749
:1012C0009B01042E02C0369527950A94E2F72170FF
:1012D00021952827292328272C934F5F5F4F4330E0
:1012E000510559F70895282F862F9A3070F427302A
:1012F00058F4622F70E027E0929F600D711D112459
:101300004BEF51E00E94460908959C5F9230E0F750
:10131000622F70E048EF51E0F5CF8093920208957C
:101320009091920221E030E0F90101C0EE0F8A9520
:10133000EAF7D90102C0AA0FBB1F6A95E2F7EA2BB0
:1013400001C0220F4A95EAF7892F8E23E81305C0C2
:10135000292B822F0E948D09089520952923F9CFEA
:1013600021E030E001C0220F8A95EAF720958091B4
:10137000920282230E948D09089590911D0280950A
:10138000892380931D02282F277069F4891759F04B
:101390009091EA0292FF07C08695869586950E94F5
:1013A000B00910921D02089521E030E001C0220F23
:1013B0008A95EAF780919202822B0E948D09089506
:1013C0008093910208950F931F93CF93DF938B0126
:1013D000EA019091FC02943061F58093E9008FEF6F
:1013E0009091E800815095FD06C095ED9A95F1F732
:1013F00000008111F5CF8091E80085FF1AC00E949E
:101400006403811111C08091E80085FD06C08091C0
:10141000E8008E778093E800F2CFF80181918F0188
:101420008093F100219779F78091E8008E7780937F
:10143000E800DF91CF911F910F91089543E050E0B4
:10144000BC0184E00E94E309089546E050E0BC013D
:1014500084E00E94E309089540E250E0BC0184E08A
:101460000E94E3090895CF93DF93EC0148E050E038
:10147000BC0181E00E94E30988E0FE01A2EFB2E036
:1014800001900D928A95E1F7DF91CF910895869AA8
:1014900027E030E090E08F98AC01022E02C0559515
:1014A00047950A94E2F740FF0EC08E9A4AE04A95AB
:1014B000F1F700C08F9A2150310968F785E18A95CC
:1014C000F1F7000008958E98F1CFCF93C1E08D37EA
:1014D000910550F0CDE0863D26E0920728F46DE7B7
:1014E00070E00E941929C62F0E94940689E90E9483
:1014F000470A8C2F80610E94470A0E949206CF9172
:10150000089586988E9898E080E08F9825E02A9537
:10151000F1F700002FB126FB222720F9880F822B3C
:101520008F9A25E02A95F1F70000915071F7089500
:10153000CF930E94940689E10E94470A0E94810A83
:10154000C82F25E02A95F1F700000E949206C0718D
:101550002DE7C29FC0011124CF910895CF93DF934F
:101560000E9494068091CB02882329F080E090E0CD
:10157000DF91CF91089583E60E94470A0E94810A75
:10158000D82F0E94810AC82F0E9492068D2FD7FD66
:1015900080689C2FC7FFECCF9068EACFACE0B0E04A
:1015A000E4EDFAE00C94F0284F8358878B879C87F2
:1015B000162F072F0E94AE0A811104C0911102C09C
:1015C000902F812F89879A8786E0FE013796DE016A
:1015D000119601900D928A95E1F729813A814B810C
:1015E0005C816D817E8180E090E02C96E4E00C943B
:1015F0000C29879A869A219A0E9494068AEB0E9467
:10160000470A8AE50E94470A0E9492062FE78FEA5E
:1016100092E0215080409040E1F700C0000010921D
:10162000CB020E94AE0A0895B0E0A0E0EAE1FBE040
:101630000C94EA287C015B016A018091840201E03C
:1016400010E08A3010F40AE010E0C1E0D0E0B5010B
:10165000C701F6010995811104C021960C171D07D9
:101660002CF4CDB7DEB7EAE00C940629CC9F9001AC
:10167000CD9F300D300D112490E080E045E34A9578
:10168000F1F70000019682179307C1F7E0CFCF93DF
:10169000C82F6FEF811165E284E290E00E946C290F
:1016A0006FEFC11168E085E290E00E946C296FEF56
:1016B000C11166E286E290E00E946C29CF91089504
:1016C000CF93DF93CCE0D3E060E0CE010E946C29A1
:1016D0002196C11584E0D807B9F7DF91CF9108951D
:1016E0000F931F93CF93DF93142F022F853020F594
:1016F000623010F598E0899FE001112484E0689F32
:10170000B0011124C60FD71FCC51DD4F82E090E00D
:10171000442311F090E080E0632F8C0F9D1F0E9406
:101720006C2983E090E0112311F081E090E0602FBC
:101730008C0F9D1F0E946C29DF91CF911F910F91FB
:1017400008951F93CF93DF93122F8530E0F46A3012
:10175000D0F44730C0F4C42FD0E0CC0FDD1F9EE0A2
:10176000699FC00DD11D11249CE8899FC00DD11D1A
:101770001124632FCE0188960E946C29612FCE011F
:1017800089960E946C29DF91CF911F9108958F92C5
:101790009F92AF92BF92DF92EF92FF920F931F93AF
:1017A000CF93DF9302E515E086E9E82E82E0F82E7C
:1017B000C0E05701D0E015C0F401259134914D2DC2
:1017C0006D2F8C2F0E94A10B82E0880E911CD39468
:1017D00087E0D812F1CF8EE0A80EB11CDF5FDA30BF
:1017E00019F04501D12CE8CFF8012591349141E061
:1017F00060E08C2F0E94700BF80132962591349195
:1018000040E060E08C2F0E94700BF8013496259127
:10181000349141E061E08C2F0E94700BF801369604
:101820002591349140E061E08C2F0E94700B085F9D
:101830001F4FCF5F8CE8E80EF11CC53009F0B9CF1F
:10184000DF91CF911F910F91FF90EF90DF90BF90AC
:10185000AF909F908F90089580E00E94470B60E0CA
:1018600087E290E00E946C290E94C70B0E94600BE7
:1018700081E00E94470B089584E290E00E944E2987
:10188000853289F485E290E00E944E29883059F42F
:1018900086E290E00E944E2991E0863209F090E0C5
:1018A000892F8170089580E0FCCF0F931F93CF9311
:1018B000DF938C01FC01C081D181CE010E944E29B1
:1018C0002196F801D183C083DF91CF911F910F91B1
:1018D0000895FF920F931F93CF93DF93F42E8530DB
:1018E00070F5623060F528E0829F8001112434E0B9
:1018F000639FB0011124060F171F0C511D4F82E08A
:1019000090E0442311F090E080E0800F911F0E944E
:101910004E29C82FD0E0DC2FCC2783E090E0FF20B9
:1019200011F081E090E0800F911F0E944E299E01EE
:10193000282BC901CDB7DEB7E5E00C940B2990E068
:1019400080E0F8CF0F931F93CF93DF93853030F56E
:101950006A3020F5473010F5C42FD0E0CC0FDD1FE2
:101960002EE0629FC00DD11D11243CE8839FC00D65
:10197000D11D1124CE0188960E944E29082F10E017
:10198000102F0027CE0189960E944E299801282BFE
:10199000C901DF91CF911F910F91089590E080E0F0
:1019A000F8CF7A3048F4673070F4853060F4462F11
:1019B000672F0E94A20C08957D3F41F4623018F415
:1019C00041E0853050F090E080E008957C3FD9F709
:1019D0006230C8F78530B8F740E00E94690C08957E
:1019E000CF92DF92FF920F931F93CF93DF936C01FF
:1019F0000091920280919102082BC4E0D0E010E0A7
:101A0000FC2EC8010C2E02C0959587950A94E2F72A
:101A100080FD0CC02197A0F7F12C8F2DDF91CF9185
:101A20001F910F91FF90DF90CF900895B6018C2FFA
:101A30000E94D10C0E94B007019761F3EECFCF93C3
:101A4000DF93EC010E94F00CBE010E94D10C0E94B9
:101A5000B007DF91CF910895FC0124812223C1F0CA
:101A6000808191810E941F0D92959F70963091F018
:101A700058F4925F9F70923058F4803F19F030F420
:101A8000883E30F481E008959A5FF4CF843FD1F32B
:101A900080E00895883EB0F3813FD1F7F3CFA6E010
:101AA000B0E0E5E5FDE00C94F12826E0FC01DE0164
:101AB000119601900D922A95E1F7FC01258189810B
:101AC0009A81222399F0662389F00E94F00C182F46
:101AD000682F89819A810E94730969817A81812F97
:101AE0000E94D10C2696E3E00C940D290E942D094A
:101AF000182FF3CFCF9360EB72E08FEB92E00E9450
:101B0000CB04C82F882321F08FEB92E00E94A1051F
:101B10009091C00286E0EFEBF2E0DF01282F1D92EA
:101B20002A95E9F79093C002A0EBB2E001900D92E4
:101B30008A95E1F781E0C11103C0911101C080E0F5
:101B40008170CF9108952F923F924F925F926F9242
:101B50007F928F929F92AF92BF92CF92DF92EF923D
:101B6000FF92CF93DF93CDB7DEB7A6970FB6F89469
:101B7000DEBF0FBECDBF8091E102811118C080E0B1
:101B8000A6960FB6F894DEBF0FBECDBFDF91CF9102
:101B9000FF90EF90DF90CF90BF90AF909F908F908D
:101BA0007F906F905F904F903F902F900895C090DE
:101BB000C502D090C602E090C702F090C8020E9411
:101BC000B004C616D706E806F906C9F20E94B004AA
:101BD0006093C5027093C6028093C7029093C802B7
:101BE0008091E2028111CDC04091BF025091C002AC
:101BF0006091C1027091C2028091C3029091C402AF
:101C00000E94CE0A2093BF023093C0024093C102CB
:101C10005093C2026093C3027093C40286E0EFEB5C
:101C2000F2E0DE01179601900D928A95E1F786E0C9
:101C3000FE013796DE011D9601900D928A95E1F71F
:101C400086E0FE013D96DE01119601900D928A9587
:101C5000E1F786E0FE013196AFEBB2E001900D9224
:101C60008A95E1F786E0EFEBF2E0DE01599601900C
:101C70000D928A95E1F786E0FE017996DE011796CE
:101C800001900D928A95E1F7DB8CBC8C8091B702B4
:101C9000882309F480C082EE94E00E9496066D2DA0
:101CA000DD0C770B880B990B0E944F2A2B013C010E
:101CB0006B2DBB0C770B880B990B0E944F2A4B01A5
:101CC0005C01AC019B01C301B2010E94A0292DEC73
:101CD0003CEC4CEC5EEB0E94432B0E94172AF62E44
:101CE000A5019401C301B2010E94A1292DEC3CEC95
:101CF0004CEC5EE30E94432B0E94172AE12C712CCE
:101D00007986EA866B87FC8686E0FE013796DE01DF
:101D1000119601900D928A95E1F786E0FE013196C9
:101D2000DE01539601900D928A95E1F786E0FE015F
:101D30007396DE01179601900D928A95E1F786E081
:101D4000FE013796AFEBB2E001900D928A95E1F774
:101D500086E0EBEDF2E0DE01179601900D928A9598
:101D6000E1F78091C0029885892B8093C0020E9480
:101D70007A0D811184C08091B80281701092B802EE
:101D8000FFCE86E0E9EBF2E0AFEBB2E001900D921E
:101D90008A95E1F743CF8D2D992781950CF4909585
:101DA0007C018091B602882351F084EF91E00E947B
:101DB00096067B2C7D18EB18F12C60E0A1CF80916A
:101DC0005501909156010E949606B701FF0C880BB1
:101DD000990B0E944F2A6B017C0120905101309099
:101DE000520140905301509054016B2DBB0C770B66
:101DF000880B990B0E944F2A6F8F78A389A39AA30F
:101E000080904D0190904E01A0904F01B0905001F4
:101E1000A2019101C701B6010E94432B6BA37CA3D1
:101E20008DA39EA3A50194016F8D78A189A19AA18C
:101E30000E94432B9B01AC016BA17CA18DA19EA1B3
:101E40000E94A1290E94172A762EA5019401C7019C
:101E5000B6010E94432B6B017C012F8D38A149A153
:101E60005AA1C201B1010E94432B9B01AC01C701E1
:101E7000B6010E94A0290E94172AE62E9DCF81E07C
:101E800090E07BCF662309F472C08D3C41F40E9440
:101E9000FE0581958093DE020E94C00508958E3C68
:101EA00019F40E94FE05F6CF8F3C31F40E94FE0526
:101EB00081958093DD02F0CF803D19F40E94FE05EC
:101EC000F8CF893D29F40E94DC058093DF02E4CF3E
:101ED0008A3D21F40E94DC058195F7CF8B3D31F4DA
:101EE0000E94DC0581958093E002D6CF8C3D19F4E9
:101EF0000E94DC05F8CF9FE2980F983020F5282F3C
:101F0000215D330BA90121E030E001C0220F4A9589
:101F1000EAF79091DC02922B9093DC02815D21E044
:101F200030E0A90102C0440F551F8A95E2F7CA01AB
:101F30002091C002662309F493C0822B8093C002D3
:101F40000E947A0D08958D3D31F48091D602816012
:101F50008093D602A1CF8E3D21F48091D60282607B
:101F6000F7CF8F3D19F58091D6028460F1CF909123
:101F7000DD028D3C59F42091DE0227FF0DC0109246
:101F8000DE0291110BC01092D40208C08E3CB1F455
:101F90002091DE0212169CF39923B1F09091DF029A
:101FA0002091E002922B11F41092D502482F415D4E
:101FB000550B4830510508F4B1CF6ECF8F3C39F442
:101FC00097FFEACF1092DD029091DE02DACF803DDA
:101FD00019F41916BCF3E0CF2091DF02893D29F4F2
:101FE0001216D4F61092DF02D7CF8A3D19F427FFDC
:101FF000D3CFF8CF2091E0028B3D29F427FFCCCF3F
:102000001092E002C9CF8C3D19F41216CCF3C4CF64
:102010002FE2280F283088F4282F215D330BA901E7
:1020200021E030E001C0220F4A95EAF72095309177
:10203000DC0223232093DC02AFCF2091D6022E7F37
:102040008D3D59F02091D6022D7F8E3D31F08F3D90
:1020500009F0A2CF2091D6022B7F2093D6029CCFED
:10206000809582236BCF9091EA0292FB222720F980
:10207000281779F080FB92F99093EA026091E902C7
:102080007091EA0284E090E00E948A2982E00E9436
:10209000BD090895A1E0B0E0E0E5F0E10C94E4288A
:1020A000D62E4A015901682E880F7708C3010E9475
:1020B0006C28C82E882309F46AC0C30133E0880F56
:1020C000991F3A95E1F7FC01EE5FFE4F438150E026
:1020D0004115510511F041E050E08E5F9E4FFC012B
:1020E000648175816E597D4FCE0101960E940E2C40
:1020F000F40140805180628073800E94B0046419B2
:10210000750986099709643671058105910538F4CA
:10211000B701C8010E942C0699818917C1F16D2C65
:102120000D2C000C7708C3010E946C28C82E811169
:1021300006C0C12C8C2D2196E0E10C940029C3012E
:1021400023E0880F991F2A95E1F7FC01EE5FFE4F0F
:10215000438150E0E416F50608F4A7018E5F9E4F18
:10216000FC01648175816E597D4FC5010E940E2C62
:10217000B701C8010E942C0699818913DACF0E9409
:10218000B004F4016083718382839383D3CFA7016A
:10219000B801C5010E940E2CCDCF8F929F92AF92B5
:1021A000BF92DF92EF92FF920F931F93CF93DF9333
:1021B000CDB7DEB72C970FB6F894DEBF0FBECDBFFC
:1021C000D090E20281E0DD2009F46FC086E0E82EC5
:1021D000F12C02E712E09E01295F3F4F40E852E0F8
:1021E00066E085E00E944A10882391F096E0FE01A7
:1021F0003796DE01119601900D929A95E1F796E0DF
:10220000FE013196A9EBB2E001900D929A95E1F7AB
:102210000091C9021091CA020115110509F445C0C7
:102220001093790200937802E0907E02F0907F0292
:1022300080907A0290907B02A0907C02B0907D0208
:102240000E94B004681979098A099B0964367105EE
:102250008105910518F4E016F10611F180913B011A
:1022600090913C018E599D4F40913A0150E043308E
:10227000510510F042E050E068E772E00E940E2C39
:1022800087E090E00E946C28882379F00E94B004D7
:1022900060937A0270937B0280937C0290937D021C
:1022A00010937F0200937E028D2D2C960FB6F8942A
:1022B000DEBF0FBECDBFDF91CF911F910F91FF9079
:1022C000EF90DF90BF90AF909F908F900895A8E01F
:1022D000B0E0EDE6F1E10C94EE2888E0E82EF12C78
:1022E00009E612E09E012F5F3F4F4EE552E063E0AA
:1022F00082E00E944A10082F882389F19091680299
:1023000080915D02981759F110E090916C028091D4
:102310006B028917F1F0E92FF0E0EA59FD4F878150
:1023200087FB662760F99F5F937090936C02909192
:102330006A029F5F90936A028F770E946D06182F42
:102340008111E3CF84E090E00E946C28012F0823E4
:1023500002C01111F7CF8091680280935D02802F37
:102360002896E6E00C940A29A5E0B0E0EAEBF1E15A
:102370000C94EC286B0185E0E82EF12C03E612E0CA
:102380009E012F5F3F4F49E552E061E080E00E94EF
:102390004A10882349F095E0FE013196A4E5B2E0A9
:1023A00001900D929A95E1F795E0E4E5F2E0D6010F
:1023B00001900D929A95E1F72596E8E00C94082992
:1023C000A9E1B0E0E6EEF1E10C94E7288E010F5FA1
:1023D0001F4F8AE0D8011D928A95E9F786E9C82E39
:1023E00081E0D82EF12CE12CAA24A394B12C22EA6E
:1023F000822E21E0922EF60181916F018F3F09F428
:1024000042C0F894E82FE295EF70F0E021A18F70C0
:10241000A50102C0440F551F8A95E2F7CA01922F09
:10242000982B91A392A18095892382A3789400C0D0
:10243000EBE9F1E0712C31E021912F3F09F490C0DC
:10244000A22FA295AF70B0E090968C9190E02F7083
:1024500002C0959587952A95E2F780FD81C0832F6C
:10246000782A330F8E169F0639F7F601319780814F
:102470008F3F11F00E94A80650EA5A95F1F7F80133
:10248000EE0DFF1D70828FEFE81AF80AA5E0EA163C
:10249000F10409F0B0CF4AE050E0B80185E892E0DD
:1024A0000E94012C009741F02AE0F801A5E8B2E073
:1024B00001900D922A95E1F70091900210E00A55E3
:1024C0001D4F892B09F44EC081E080934C020E947D
:1024D000BC0490934B0280934A02D12CC090E1023D
:1024E000CC2009F49FC07E01BBE0EB0EF11C85E01F
:1024F000F70111928A95E9F7809184028A3008F0F9
:1025000057C044EB51E1B701C8010E94140B882366
:1025100009F477C047E651E1B701C8010E94140BE6
:10252000882309F46EC04DEC50E1B701C8010E9448
:10253000140B882309F465C01092840280918F02E5
:1025400090E045E050E0B7018A559D4F0E94012C74
:1025500021E020935302892B09F041C0C12C4BC0CC
:1025600080E07ECFD0904C02DD2009F4B6CFE09021
:102570004A02F0904B020E94BC048E199F090597F5
:1025800008F4ABCF45E050E065E872E0C8010E9476
:10259000012C892B59F085E0E5E8F2E0D8010190A3
:1025A0000D928A95E1F710924C0298CFD12CFBCF77
:1025B000A0904D02B0904E020E94BC048A199B0963
:1025C000843F914008F09DCF80915302882331F2DF
:1025D00085E0D7011D928A95E9F710925302A091E8
:1025E0008F02B0E0AA55BD4F85E0FE013B960190F9
:1025F0000D928A95E1F78C2D8D296996EDE00C946A
:102600000329809184028F3F31F08F5F8093840291
:102610008A3008F493CF0E94BC0490934E028093BA
:102620004D02D2CF85E0F801A3E6B2E001900D9211
:102630008A95E1F765E070E083E692E00E942C065F
:102640008093620288E0ECECF2E0A9E6B2E001904F
:102650000D928A95E1F768E070E089E692E00E94C9
:102660002C06809368028091E2028111C4CF809091
:102670004F0290905002A0905102B09052020E94DE
:10268000B00486169706A806B90609F4B4CF0E94CE
:10269000B00460934F027093500280935102909364
:1026A00052020E94980A9C0199E0E1E7F2E0DE0103
:1026B0001B9601900D929A95E1F78A899B89009764
:1026C00029F02817390711F00E94650AFE01749657
:1026D00086E0DF011D928A95E9F74C895D896E8954
:1026E0007F89888D998D0E94CE0A2C873D874E87E1
:1026F0005F87688B798B66E070E0CE010C960E9454
:102700002C068B8789E0FE013B96A1E7B2E00190A1
:102710000D928A95E1F722CF80915901813059F5C8
:102720008091E90287FF27C00E94D5088093CD01E0
:1027300040E250E060E272E08CEC91E00E94012CFB
:10274000892BC1F080E2ECECF1E0A0E2B2E0019074
:102750000D928A95E1F7E091E502F091E60230975B
:1027600049F086E08093CC010480F581E02D8CEC6B
:1027700091E0099508950E94D5088093C40148E02E
:1027800050E060E472E084EC91E00E94012C892B1F
:1027900089F388E0E4ECF1E0A0E4B2E001900D926E
:1027A0008A95E1F7E091E502F091E602309711F3A6
:1027B0000280F381E02D84EC91E0DBCF8091590120
:1027C000813039F58091E90287FF23C0EEECF1E01A
:1027D0008EE1DF011D928A95E9F790E080E00E948A
:1027E0007C0590E080E00E94570510921F020E9435
:1027F0008C1386E0EBEDF2E0DF011D928A95E9F79C
:102800001092D4021092D5021092D6020E94C005F6
:102810000895E6ECF1E086E0DCCFAAE2B0E0E3E187
:10282000F4E10C94F1288EEF92E02091F100DC01AC
:102830002D93CD01B3E086309B07B9F78091FF025D
:10284000833009F472C0B8F4813009F449C0823091
:1028500009F4B9C08091E80083FF41C18091FE0274
:102860009091FF029A3008F03AC1E92FF0E0E75E5C
:10287000F34D0C9441298A3009F494C08B3009F44B
:1028800071C0893039F78091FE02813219F7809149
:10289000020390910303009711F00297D9F68091FB
:1028A000E800877F8093E8008091E80082FF38C0CD
:1028B0009091F3008091F200029731F48091F10041
:1028C000813011F0863021F48091F100809358011D
:1028D0008091E8008B778093E8000E949503BACF3F
:1028E0008091FE02813A09F0B5CF8091E800877FA0
:1028F0008093E8008091020390910303892B61F497
:1029000068E082EF92E070E00E9441048091E8006C
:102910008B778093E8009ECF60E090E080E0F3CF7B
:102920008091FC028111C0CF95CF8091FE02813A47
:1029300009F090CF8091020390910303892B09F055
:1029400089CF8091E800877F8093E8008091E8003C
:1029500080FFFCCF809159018093F1008091E800C5
:102960008E77B9CF8091FE02813209F073CF8091CA
:10297000020390910303892B09F06CCF8091E8004A
:10298000877F8093E8000E94950381E09091000387
:10299000911101C080E0809359011092F1020E94D0
:1029A000DE1358CF8091FE02813209F053CF80911F
:1029B000E800877F8093E8000E94950380910103DF
:1029C0008093570147CF8091FE02813A09F042CFB0
:1029D0008091E800877F8093E8008091E80080FF85
:1029E000FCCF80915701B8CF803899F0823809F038
:1029F00076C0809102038F70873008F070C080939A
:102A0000E9008091EB0085FB882780F91092E900AE
:102A100006C08091FA029091FB0291118260909120
:102A2000E800977F9093E8008093F1001092F10006
:102A30008091E8008E77B8C1882309F4A5C182305F
:102A400009F04DC0809100038111A9C1809102035A
:102A50008F702FEF280F263008F041C08093E900D7
:102A60002091EB0020FF9BC1933031F48091EB006B
:102A700080628093EB0093C19091EB009061909302
:102A8000EB0021E030E001C0220F8A95EAF72093A5
:102A9000EA001092EA008091EB008860EACF811191
:102AA0001EC0109100031F778091E3008078812B76
:102AB0008093E3008091E800877F8093E8000E9484
:102AC00095038091E80080FFFCCF8091E30080684F
:102AD0008093E30082E0111183E08093FC028091F7
:102AE000E80083FF0AC08091E800877F8093E800B8
:102AF0008091EB0080628093EB00AA96E3E00C9457
:102B00000D298058823058F720910003309101033D
:102B10002C3DE3E03E07A1F583E08A838AE28983C6
:102B20004FB7F894DE01139620E03EE051E2E32F28
:102B3000F0E050935700E49120FF03C0E295EF705E
:102B40003F5FEF708E2F90E0EA30C0F0C7968D9314
:102B50009D932F5F243159F74FBF8091E800877F05
:102B60008093E8006AE270E0CE0101960E94410481
:102B70008091E8008B778093E800B1CFC096E7CFD3
:102B80008091020390910303432F55274330510551
:102B900009F44AC078F54130510509F47AC08BE553
:102BA00090E0EAE7F5E04230510509F098CF209136
:102BB000E800277F2093E80020910403309105036B
:102BC0008217930708F49C0140E02115310509F0B4
:102BD00065C0411163C08091E80082FDC9CF80913A
:102BE000FC02882329F2853019F28091E80083FFE6
:102BF000F2CFBECF4132510509F43CC042325105FB
:102C000009F06DCF8330910508F069CFFC01EE0F1C
:102C1000FF1FEB54FE4F0190F081E02D8E549E4F2C
:102C2000DC018C9190E01AC0332721303105D1F0BE
:102C30002115310561F02230310509F050CFE7EE62
:102C4000F5E0E4918E2F90E0E7EEF5E007C0E9E0D3
:102C5000F6E0E4918E2F90E0E9E0F6E0009709F4C9
:102C60003ECFA5CFE7EFF5E0E4918E2F90E0E7EFC0
:102C7000F5E0F4CF8330910508F031CF880F991F2C
:102C8000FC01E554FE4F0190F081E02D89E090E0D9
:102C90008ECF82E190E0E5EDF5E089CF8091FC02F6
:102CA000882309F465CF853009F462CF8091E8006C
:102CB00083FD5ECF8091E80082FD8DCF8091E8009A
:102CC00080FF83CF9091F3008091F20021153105B0
:102CD00019F08830910550F041E0089709F040E084
:102CE0008091E8008E778093E8006FCF4491409305
:102CF000F1003196215031090196E8CF803809F072
:102D0000EECE8091E800877F8093E8008091FD02FD
:102D10008093F1008DCE8111E2CE1091000312302C
:102D200008F0DDCE8091E800877F8093E800109363
:102D3000FD020E949503112311F084E005C08091EB
:102D4000E30087FDFACF81E08093FC0242E061EC72
:102D500081E00E94B40342E261EC84E00E94B4038B
:102D600042E261EC82E00E94B40342E260EC83E064
:102D70000E94B4038091FC02843021F081E08093B2
:102D80005A01ADCE82E0FBCF80910003813009F083
:102D9000A6CE81E0933009F080E08093FB02109290
:102DA000E9008091E800877F8093E8000E94950306
:102DB00096CE1092F1020E94DE132FEF84E39CE086
:102DC000215080409040E1F700C0000088E19AE087
:102DD0000FB6F894A895809360000FBE90936000A2
:102DE000FFCF882321F00E94CE080E948C13089503
:102DF000882339F09091F102982B9093F1020E9470
:102E00008C130895882381F19CEF980F913A28F450
:102E10000E94F8040E948C13089590E2980F983055
:102E200050F4877091E001C0990F8A95EAF7892FD5
:102E30000E94CE08EFCF9BE5980F933028F490E0E6
:102E400080E00E947C05089598E5980F9B3128F456
:102E500090E080E00E945705089593E3980F933126
:102E600018F460E00E94420F0895CF93C82F882382
:102E7000B9F18CEF8C0F813AA8F58091590181301E
:102E800001F58091E90287FF1CC0EC2FE695E695DD
:102E9000E695F0E0E453FE4F828190E04C2F4770BE
:102EA00021E030E002C0220F331F4A95E2F782236F
:102EB0009323892B81F08C2F0E94F8040E948C139D
:102EC0000AC0E6ECF1E08CEC91E02191C21799F395
:102ED0008E179F07D1F78C2F0E9423050E948C1319
:102EE000CF91089580E28C0F883068F4C77021E09C
:102EF00030E001C0220FCA95EAF78091F102822BDF
:102F00008093F102EBCFEBE5EC0FE33040F4F0E01F
:102F1000E55AFE4F808190E00E947C05E1CFE8E514
:102F2000EC0FEB3150F4F0E0EE0FFF1FE25AFE4FD2
:102F3000808191810E945705D3CF83E38C0F833129
:102F400078F661E08C2F0E94420FCACF1F93CF9377
:102F5000DF93182FEB010E943517209739F4812F4A
:102F60000E940217DF91CF911F9108958FE99FE092
:102F70000197F1F700C000002197EFCFA2E0B0E089
:102F8000E4ECF7E10C94E8286C01DC0114968C91D8
:102F9000882309F457C061E0C6010E944F0D8C01DF
:102FA00082EE94E00E949606F801E154FE47D601B5
:102FB00015968C91EF30F10508F022C2ED5DF34DCE
:102FC0000C944129882381F081E08093F50180935E
:102FD000B702F601828193819093F4018093F3010B
:102FE00081E00E94D4091EC01092B70281E00E94C5
:102FF000B0098091F501882399F0D60112968D9140
:103000009C912091F3013091F401821B930B883C39
:10301000910530F48AE80E9435178AE80E94021769
:103020001092F50180911D02877061F0D60115960E
:103030008C91882339F08091EA0282FF03C082E0FC
:103040000E94BD092296ECE00C940429882371F0BB
:1030500081E08093F2018093B602F6018281938130
:103060009093F1018093F00182E0BBCF1092B60201
:1030700082E00E94B0098091F201882399F0D60184
:1030800012968D919C912091F0013091F101821B5B
:10309000930B883C910530F48BE80E9435178BE840
:1030A0000E9402171092F201BDCF882371F081E0D7
:1030B0008093F2018093B702F6018281938190930D
:1030C000F1018093F00183E08CCF1092B70283E08E
:1030D0000E94B0098091F201882321F3D601129653
:1030E0008D919C912091F0013091F101821B930B05
:1030F000883C9105B8F689E20E94351789E2D0CF65
:10310000882371F081E08093F2018093B602F6018A
:10311000828193819093F1018093F00184E061CFEB
:103120001092B60284E00E94B0098091F2018823D7
:1031300009F4B8CFD60112968D919C912091F0019F
:103140003091F101821B930B883C910508F0AACFC6
:103150008BE20E9435178BE2A3CF882309F462CF5C
:103160008BE80E9435178BE80E94021781EE0E94BF
:10317000351784E20E94351784E20E94021784E228
:103180000E94351784E20E94021781EE0E94021706
:1031900080E50E94351780E50E94021743CF8823FF
:1031A00009F440CF8BE80E9435178BE80E94021784
:1031B00081EE0E94351785E20E94351785E20E9454
:1031C000021786E20E94351786E2DDCF882309F4D4
:1031D00029CF8BE80E9435178BE80E94021781EEF9
:1031E0000E94351780E20E94351780E20E94021784
:1031F00081EED2CF882309F415CF8BE80E943517D2
:103200008BE80E94021781EE0E94351786E30E9428
:10321000351786E30E94021781EE0E94021785E0AF
:103220000E94351785E00E94021785E10E9435173C
:1032300085E10E94021781EE0E94351787E30E9404
:10324000351787E3D3CF882309F4ECCE8BE80E94AF
:1032500035178BE80E94021781EE0E94351784E330
:103260000E94351784E3C2CF882309F4DBCE809116
:1032700055019091560183589F4F8036B5E09B07CA
:1032800068F4909301018093000180910001909176
:1032900001019093560180935501C4CE8FE595E0CE
:1032A000F0CF882309F4BECE80915501909156014C
:1032B0008D5791098D37910520F78DE790E0E1CF8B
:1032C000882309F4AFCE82EE94E0E3CF882309F49B
:1032D000A9CE20E030E040E450E46091EC01709130
:1032E000ED018091EE019091EF010E94A1294B0127
:1032F0005C0120E030E044EB53E40E943E2B1816C2
:103300004CF08092EC019092ED01A092EE01B0920F
:10331000EF0108C01092EC011092ED011092EE0145
:103320001092EF0125E33AEF4EE85CE36091EC0187
:103330007091ED018091EE019091EF010E94432B7D
:103340004B015C010E94122A60935101709352015B
:103350008093530190935401C501B4010E94B02B96
:1033600060934D0170934E0180934F0190935001F3
:1033700059CE882309F456CE20E030E040E450E4F2
:103380006091EC017091ED018091EE019091EF015F
:103390000E94A0294B015C0120E030E0A9010E94BD
:1033A0000D2A87FFAECF80E090E0A4EBB3E48093DA
:1033B000EC019093ED01A093EE01B093EF01B2CF39
:1033C000882309F42FCE1092EC011092ED01109297
:1033D000EE011092EF0180E090E0A0E8BFE380935F
:1033E000510190935201A0935301B09354018093E3
:1033F0004D0190934E01A0934F01B093500112CE16
:10340000882309F48CC31092F5011092F2019801FF
:1034100037572038310508F06EC3003108F002CE6E
:103420008FEF93E00E944E298111FCCD5CE0E52EE8
:1034300053E0F52E011121C0FA82E9824AE0842E80
:10344000CE0101960E94550C882309F4EBCD813002
:1034500009F05FC0CE0101960E94550C8130E1F465
:10346000CE0101960E94550C70E060E0893311F4A2
:1034700060E570E00E94A617E3CFE114E4E0FE06E9
:1034800009F4D0CDC7010E944E29811101C001501D
:10349000FFEFEF1AFF0ACECF823039F4CE0101964A
:1034A0000E94550C0E943517CBCF833039F4CE01E2
:1034B00001960E94550C0E940217C2CF843081F4FD
:1034C000CE0101960E94550C10E000E0482F4053B9
:1034D000550B9A014A30510530F00115110581F460
:1034E0008111AECF9FCD809EC001819E900D112491
:1034F0008901080F191FCE0101960E94550CE6CFD5
:10350000AFE9BFE01197F1F700C0000001501109C9
:10351000E4CFE82FF0E0EA5EFD4F9490282F269547
:103520002695269530E0F901EA5FFD4FE49087701B
:10353000F12C082E02C0F594E7940A94E2F7B1E06A
:10354000EB22FF24F901EA50FE4FA490B12C082E83
:1035500002C0B594A7940A94E2F7E1E0AE22BB243E
:10356000F901EA51FE4F049110E002C0159507954C
:103570008A95E2F701701127E114F10419F081EE48
:103580000E943517A114B10419F086EE0E94351778
:1035900070E060E0892D0E94A617A114B10419F013
:1035A00086EE0E940217E114F10419F081EE0E94E8
:1035B00002170115110509F443CF70E060E08CE2B9
:1035C00059CF85E3A7C285E3B3C281E00E94D40945
:1035D00043E062E081E00E94900924CD81E00E94F6
:1035E000B009F6CF82E0F2CF882381F003303CE7C8
:1035F000130709F47CC008F05DC001155CE71507EE
:1036000009F466C001301C4709F477C0F6018581D2
:1036100000811181882309F47EC0C8010E94F00C4A
:10362000F82E682FC8010E947309B8018F2D0E94DF
:10363000D10C0E94B0078C01882ED6011596AC9053
:10364000159716969C9092943FE0932280911D02CC
:10365000877009F1EA2CAA20F9F0812F807F80344D
:1036600069F080E2800F8830B0F0812F807E803258
:1036700029F4B1E0B01778F4992069F08091EA025A
:1036800082FF09C082E00E94BD0980911D028770FF
:10369000EE24E3948111E12CB12EB2942FE0B222FA
:1036A000EBE0EB1508F49BC0EB2DF0E0EE5CF34D86
:1036B0000C9441290B359CE7190759F10C35ACE7FF
:1036C0001A07E9F00A351C4709F0A0CF81E01EC0B7
:1036D0001092F1020E94DE13EFEFF4E32CE0E150D0
:1036E000F0402040E1F700C000000E949F046FEF0F
:1036F0007FEF90E080E00E948A290E94D916809195
:10370000EA0282FB882780F991E089270E94331022
:103710007DCF80E0FBCFC8010E942D09F82E85CF18
:10372000F12FFF70FF2E107F19F0F29490EFF92225
:10373000AA20B9F0FF2069F080E2800F883010F0F5
:10374000811009C08091F102F82AF092F1020E94E2
:103750008C13802F42C080911F02F82AF0921F0222
:10376000F6CF802F0E940217FF20C9F1005E0830BB
:1037700010F0811004C08F2D0E94CE0806C0F09476
:1037800080911F02F822F0921F020E948C1327C022
:10379000212F2F70F22E107F103219F0F29480EF4B
:1037A000F822882051F031E0831609F45AC0AA208B
:1037B00009F466C0992059F1CCCF8091EA0282FDCC
:1037C00022C0AA20D1F0FF2039F08091F102F82A1E
:1037D000F092F1020E948C1380E00E9435174B2D6D
:1037E0004850550B4430510508F06BC10E94AF059D
:1037F00060E0C6010E944F0D25CC80E00E940217B8
:10380000FF2069F3B8CFAA2099F0911004C08F2D42
:103810000E94F816E4CF41E09412E1CF80911E029D
:103820009F2D9823F916D9F2F82AF0921E02D7CFCD
:103830009110D5CF8F2D0E94F11690911E028F2DE1
:10384000892329F08F2D8095892380931E028091F2
:10385000F7019F2D982319F2F094F822F092F701C6
:10386000BECFAA2029F055E0591508F4B8CFCFCF24
:1038700084E0891508F4B3CF8F2D0E94F116AFCFE5
:103880009920D1F399E3891209C0AFEFB7EEE3E0D5
:10389000A150B040E040E1F700C00000802F0E943E
:1038A00002179DCF812F86958695837061F08130B8
:1038B00009F095CFC8019370A11002C080E090E09C
:1038C0000E9457058CCFC8019370A11002C080E000
:1038D00090E00E947C0583CF6A2D802F0E94420FCA
:1038E0007ECF812F837089F5A11079CF402F42952B
:1038F00046954770440F440F802F8F70042E01C0EF
:10390000880F0A94EAF7202F207104FF07C02FE0E8
:1039100030E001C0220F4A95EAF7209516951695DA
:103920001370123069F050F430919102113029F087
:10393000822B83230E94E00952CF832B822BFACF64
:10394000282B809191028227F5CF8695AA2011F02D
:10395000812F8170882309F442CF402F42954695EC
:103960004770440F440F802F8F70042E01C0880FC2
:103970000A94EAF7202F207104FF07C02FE030E0FF
:1039800001C0220F4A95EAF72095169516951370F7
:10399000123069F050F430919202113029F0822BEC
:1039A00083230E948D091BCF832B822BFACF282BD8
:1039B000809192028227F5CF1F70AA2029F0812FD3
:1039C0000E94D409802F24CF802F0E94F116812FCE
:1039D0000E94B00904CF802FF2EF8F16B1F1F815D5
:1039E00070F020EF8216D1F031EF831691F0AA200B
:1039F00009F457C09110ADCE812F8F712AC043EFCB
:103A0000841651F154EF8512F2CF9091EA0292FDA3
:103A10002FC0812F8F71AA20D9F21BC0AA2081F05C
:103A200084E0891508F4DBCE1F7181E090E0012E5F
:103A300001C0880F0A94EAF7909192028927B1CFCA
:103A400095E0991508F4CBCEEFCF812F8F71A1109F
:103A5000BFCF0E94D409C3CE80E0AA2009F4A1CF31
:103A60001F7181E0012E01C0880F0A94EAF799CFF7
:103A7000AA2061F0812F8F7192FFEBCFA8E08A9F7F
:103A800090011124236020931D02E3CF81E00E9466
:103A9000BD09B1E0B91508F0A2CE82E00E94BD09CF
:103AA0009ECE992059F0893309F0F8CEEFEFF7EE6A
:103AB00023E0E150F0402040E1F7EECE812F8F71FE
:103AC00087CFEE2009F494CE80911D0280FD90CE28
:103AD000D60115961C928695869586950E94D409E6
:103AE000C6010E94BE1780911D0286958695869517
:103AF0000E94B0097DCE0631BCE71B07E1F480913E
:103B0000F1028A7A91E009F490E09093F601811134
:103B100058CD89E20E9423050E948C1383CA063186
:103B2000ECE71E0771F58091F60181114CCD89E219
:103B30000E94F804F1CF0737FCE71F0709F445CDD1
:103B400008372CE7120709F44DCD9801205E324565
:103B50002032310508F048CD811158CD0F7181E038
:103B600090E09C0102C0220F331F0A95E2F7890101
:103B7000622F83E090E00E946C29802F0E94E00970
:103B800051CA07373CE7130709F428CD08374CE73B
:103B90001407D9F682E023CDCF93DF9380911C02E6
:103BA000807F09F04DC080911B02882309F448C032
:103BB000E0913F0350910603C0911702D091160285
:103BC000609118027091190247E05E17C9F18E2FBB
:103BD00090E0E49FF0011124E95FFC4F248122234F
:103BE00091F1489FF001499FF00D1124DF01A95F79
:103BF000BC4F11962C9111972C1325C02C912D138D
:103C000022C015962C91159721111DC012962D9149
:103C10003C91261B370B283C3105A8F480911C02EF
:103C20008F70806180931C02E35FFC4F80818F70F6
:103C30008061808386E192E00E94BE170E94FC08AA
:103C4000DF91CF910895FC013196E770BECFA4E1DA
:103C5000B0E0EDE2FEE10C94E8288C0186E0F8018A
:103C6000DE011F9601900D928A95E1F7F80184819B
:103C7000E58096E1A92E92E0B92E90911A02911159
:103C800028C0882319F1EE20F1F0C8010E942C0D04
:103C9000F82E8823C1F087E0F801D50101900D923C
:103CA0008A95E1F780911A02813031F480911602F1
:103CB000909117020E941F0D0E94CC1D8F2D6496BB
:103CC000ECE00C940429C8010E94BE17FF24F39471
:103CD000F5CFD080C18082809380F0901B0220912C
:103CE000180230911902A401421B530BFF2009F462
:103CF000D9C0483C510508F092C08823F9F2909150
:103D0000170280911C02282F207F09F056C0C9128B
:103D100014C090911602D91210C0E11048C08F70E3
:103D2000806180931C0286E192E00E94BE17809120
:103D30001C02F8018683F12CC1CFE11038C06C2D34
:103D40008D2D0E9426036C2D8D2D0E942603E82EBA
:103D50008111F1CFDF86C88A8F8598890E941F0D57
:103D6000292F22952F70243058F49F70223088F02C
:103D7000992399F0F8019681907F79F4FE2C9ECFDB
:103D80002A5F2F70223068F0C8010E94BE17EF2C06
:103D9000F5CF992311F0882389F3805E883070F382
:103DA000F3CF803F58F3815F833070F7E7CF809186
:103DB0001C02816080931C02BECFC91207C0909183
:103DC0001602D91203C0EE2009F48DC0C8010E946A
:103DD0002C0D882309F477CFEE2009F474CF80915D
:103DE0001C02803288F02091160230911702398728
:103DF00028879B868A8690911A029C871D868E87CB
:103E0000CE0108960E94BE1787E0F801A6E1B2E055
:103E100001900D928A95E1F70E94CC1D57CF9091A9
:103E20001C02292F207F51F486E192E00E94BE17E8
:103E300087E0F50111928A95E9F77DCF882309F48F
:103E40003DCF809117028C1110C080911602D812BC
:103E50000CC0E1100AC09683C8010E94BE1787E01B
:103E6000F50111928A95E9F729CFC8010E942C0D1E
:103E7000882309F428CFEE2009F425CF80911C0275
:103E8000803210F220911602309117023A83298372
:103E90009C828B8290911A029D831E828F83CE0119
:103EA0000196B0CF483C5105D0F6882309F40ECFD7
:103EB000FE2CEE2009F407CF809117028C1120C050
:103EC00080911602D8121CC080911C0280FD0FC088
:103ED000982F907F61F08683903F31F0982F907FEC
:103EE000905F8F70892B8683C8010E94BE1787E080
:103EF000F801A6E1B2E001900D928A95E1F7DECEDD
:103F0000C8010E942C0D81117FCF80911C0281601D
:103F100080931C02C8010E94BE17D0CEABE1B0E076
:103F2000E4E9FFE10C94F1284E8B5F8B688F798F69
:103F30008A8F9B8F911110921F021D8A86E0FE01CD
:103F40007696DE011F9601900D928A95E1F78B8996
:103F5000882351F061E0CE010F960E944F0D61E081
:103F6000CE010F960E944F0D87E0FE013F96DE01C5
:103F7000189601900D928A95E1F7CE0108960E945D
:103F8000271E81110CC087E0FE013896DE011196D4
:103F900001900D928A95E1F78C8581110BC017E095
:103FA00080913F0390910603891333C06B96E3E041
:103FB0000C940D292091060330E0C9010196877009
:103FC000992740913F034817190699F097E0929F6F
:103FD000D001939FB00D1124A95FBC4FFE01319613
:103FE00001900D929A95E1F7809306030E94FC08D8
:103FF000D6CF1092F1020E94DE13109206031092A7
:104000003F0387E0E6E1F2E0DF011D928A95E9F7E0
:10401000C6CF819FC0011124895F9C4F0E94271E3B
:10402000882321F280913F0390E0019687709927C1
:1040300080933F03B5CFACE0B0E0E1E2F0E20C9456
:10404000EB2880E00CEF93E0F92EEE24E3942DEFC3
:10405000D22E32E0C32E9091CF022091CE022917AA
:1040600009F448C0E92FF0E0E053FD4F108117FB41
:10407000BB24B0F81F779F5F93709093CF0280911D
:10408000CD028F5F8093CD02B11008C00E94BC04A6
:104090001F8308879A878987FB8607C00E94BC0414
:1040A0001F83D8869A878987CB86EC864F8158856F
:1040B00069857A858B859C850E948E1FBB2091F037
:1040C0000E94BC041983DA829C838B83CD821E827A
:1040D00049815A816B817C818D819E810E948E1FD6
:1040E00081E0B9CF0E94BC0419830A839C838B832F
:1040F000FD82EDCF2C96E9E00C940729A6E0B0E014
:10410000E4E8F0E20C94F0280E94BC048C01809159
:104110004802909149028017910781F019821A8212
:104120000E94BC04682F49815A81792F80E090E079
:104130000E948E1F10934902009348022696E4E0E5
:104140000C940C291F920F920FB60F9211242F93EB
:104150003F934F935F936F937F938F939F93AF930F
:10416000BF93CF93DF93EF93FF93D091E900DF707C
:104170008091EC00C82FC17080FDC0E81092E9006A
:104180008091F000877F8093F00078940E940D1456
:104190001092E9008091F00088608093F000CD2BB0
:1041A000CF70C093E900FF91EF91DF91CF91BF9164
:1041B000AF919F918F917F916F915F914F913F91BF
:1041C0002F910F900FBE0F901F9018951F920F9276
:1041D0000FB60F9211242F933F934F935F936F93DA
:1041E0007F938F939F93AF93BF93EF93FF938091B0
:1041F000E10082FF09C08091E20082FF05C080914A
:10420000E1008B7F8093E1008091DA0080FF24C081
:104210008091D80080FF20C08091DA008E7F80934B
:10422000DA008091D90080FFAAC080E189BD82E1D7
:1042300089BD09B400FEFDCF81E08093FC0280912E
:10424000F002811109C00E9445030E94E60380919B
:10425000E20084608093E2008091E10080FF1AC058
:104260008091E20080FF16C08091E2008E7F8093F3
:10427000E2008091E20080618093E2008091D800AA
:1042800080628093D80019BC85E08093FC0283E0B3
:1042900080935A018091E10084FF30C08091E20058
:1042A00084FF2CC080E189BD82E189BD99B5892F49
:1042B000817090FFFBCF9091D8009F7D9093D800A4
:1042C0009091E1009F7E9093E1009091E2009F7EAB
:1042D0009093E2009091E20091609093E2009091BF
:1042E000FD02992309F451C094E09093FC0290914F
:1042F000FC02943009F482E080935A018091E1003D
:1043000083FF2CC08091E20083FF28C08091E100F0
:10431000877F8093E10082E08093FC021092FD028F
:104320008091E1008E7F8093E1008091E2008E7F9A
:104330008093E2008091E20080618093E20042E09D
:1043400060E080E00E94B4038091F0008860809378
:10435000F00081E080935A0180935901FF91EF9121
:10436000BF91AF919F918F917F916F915F914F918D
:104370003F912F910F900FBE0F901F90189519BC71
:104380001092FC021092F00267CF9091E30097FD2B
:1043900002C0982FAACF93E0A8CF78941F921FB69F
:1043A0001F9211248F939F93AF93BF938091EC0240
:1043B0009091ED02A091EE02B091EF020196A11D45
:1043C000B11D8093EC029093ED02A093EE02B093A6
:1043D000EF02BF91AF919F918F911F901FBE1F90D1
:1043E00018951F921FB61F9211248F939F93AF931E
:1043F000BF938091EB02811113C08091EC029091E8
:10440000ED02A091EE02B091EF024196A11DB11D07
:104410008093EC029093ED02A093EE02B093EF0232
:10442000BF91AF919F918F911F901FBE1F901895C4
:10443000CDB7DEB7A7970FB6F894DEBF0FBECDBFDE
:1044400085B7806885BF85B7806885BF84B7877F5B
:1044500084BF0FB6F894A89580916000886180931E
:104460006000109260000FBE80E890E00FB6F894F4
:1044700080936100909361000FBE81E080935A01A8
:1044800082EA96E09093C3018093C2010E944503A3
:104490000E94E6038091E20084608093E2007894B9
:1044A0008091FC028823A1F01091E9001F70909187
:1044B000EC00892F817090FD80E8182B1092E900A4
:1044C0008091E80083FD0E940D141F701093E90095
:1044D00082E084BD93E095BD9AEF97BD80936E0016
:1044E0000E943C0C811102C00E942C0C8091D800CB
:1044F00080618093D8002AE12A95F1F700C080916D
:10450000D900182F117080FD04C00E94450310923D
:10451000FC021093E10281E081278093E202809304
:10452000420111110E948027ECECF2E088E0DF01EB
:104530001D928A95E9F78091420191E08927809345
:10454000A002809142019093A3028091420160E019
:1045500080E00E94530661E080E00E945306EFE88D
:10456000F1E03197F1F700C0000010E08091A30264
:10457000181708F4CAC0809142018091420195E069
:10458000811190E09093900285E0891B80938F02C7
:1045900006E911E05BE9E52E51E0F52ED8018D9199
:1045A0008D018F3F11F00E94A806E016F106B1F7C9
:1045B0000BE911E0F80181918F018F3F11F00E940A
:1045C000A806F1E0023A1F07A9F78AE0E6EAF2E05E
:1045D000DF01282F1D922A95E9F7E5E8F2E0DF01D7
:1045E0001D928A95E9F790E080E00E945629853E69
:1045F0009E4F21F40E943C0C811163C065EE7EEF5A
:1046000090E080E00E948A2960E082E090E00E94D1
:104610006C2981E08093910261E083E090E00E9448
:104620006C2960E074E184E090E00E948A2960E0F7
:1046300086E090E00E946C2960E087E090E00E94B4
:104640006C2940E050E0BA0188E090E00E947E29A9
:1046500060E083E290E00E946C2960E08CE090E0F2
:104660000E946C2960E08DE090E00E946C29198224
:104670001A821B821C821D821E821F82188648E0BD
:1046800050E067E170E0CE0101960E945C2940E0B5
:1046900050E0BA018FE190E00E947E2980E00E9404
:1046A000470B0E942C0C40E050E0BA018FE090E0F4
:1046B0000E947E2940E050E0BA0183E190E00E9430
:1046C0007E2982E090E00E944E298093930284E04C
:1046D00090E00E9456299093EA028093E9020E949A
:1046E000E011EFE3FCE93197F1F700C000000E9410
:1046F000E0118091A60280FF1AC06FEF7FEF90E07B
:1047000080E00E948A290E949F0460E0812F0E941D
:104710004206082F61E0812F0E944206E12FF0E05F
:10472000EF55FD4F880F802B80831F5F1FCF83E0E5
:1047300090E00E944E290E94E0098091E1028111DF
:1047400002C00E9483278091E202811102C00E9470
:10475000F90A83E491E09093E6028093E50220EB6E
:10476000422E22E0522E3EE9E32E32E0F32EBB240D
:10477000B39444E0C42ED12C8091FC0210E402E1F9
:10478000853009F47FC00E94E01104E912E096EA46
:10479000892E92E0992ED401F80191918D91EE1617
:1047A000FF0609F47BC09817C1F3A091E102AFA303
:1047B000712CF40161904F01D8012D908D012614C8
:1047C00039F12624A12C33243394822D8321C1F086
:1047D000BFA1BB23A9F0A9A27AA20E94BC049CA3FA
:1047E0008BA3E1E0EDA391E0862D832109F490E015
:1047F0009EA349A15AA16BA17CA18DA10E948E1FED
:10480000A394330CF7E0AF12E0CFF8013197608248
:1048100073942AE07212CDCF0E94B00443C08091FD
:10482000FC02843029F10E94A30D1092EB0288E172
:1048300090E00FB6F894A895809360000FBE109397
:10484000600083B7817F846083BF83B7816083BF4B
:104850007894889583B78E7F83BF0FB6F894A89518
:1048600080916000886180936000109260000FBEAC
:104870000E94E011E6EAF2E081918111B8C24E1681
:104880005F06D1F78091FC02853009F4C8CF109201
:10489000F1020E94DE130E94AF0575CF981385CFF9
:1048A0000E947E208090E102882019F00E941B2047
:1048B000882E8091A402882351F01092A402809146
:1048C000CE028093CF028091CC028093CD02912CB6
:1048D0008091A302981608F40FC18091E102882309
:1048E00019F00E941B20882A81100E94B0040E94A7
:1048F000A30D81110E94B00486E0EBEDF2E0DE0131
:10490000119601900D928A95E1F71092DD021092B6
:10491000DE021092DF021092E0028B819C81892BD3
:1049200009F449C00091D9021091DA020E94BC0436
:104930009C01201B310B9091D402992309F483C26E
:1049400025313105C0F19F3F19F09F5F9093D4024C
:104950001B81112359F00E94FE059FEF11160CF4E4
:1049600091E0899F802D11248093DD021C81112309
:1049700059F00E94FE059FEF11160CF491E0899FFB
:10498000802D11248093DE028091DD02882399F02E
:104990001091DE02112379F00E941E06882309F48B
:1049A000E7C08093DD02812F0E941E06882309F450
:1049B000E2C08093DE028D819E81892B09F449C07B
:1049C0000091D7021091D8020E94BC049C01201BC8
:1049D000310B9091D502992309F430C2213531056C
:1049E000C0F19F3F19F09F5F9093D5021D81112365
:1049F00059F00E94DC059FEF11160CF491E0899F9D
:104A0000802D11248093DF021E81112359F00E9412
:104A1000DC059FEF11160CF491E0899F802D112485
:104A20008093E0028091DF02882399F01091E002E8
:104A3000112379F00E941E06882309F49FC08093F9
:104A4000DF02812F0E941E06882309F49AC08093FA
:104A5000E002BE016F5F7F4F8BED92E00E94CB04BE
:104A600081110CC08091DD029091DE02892B909122
:104A7000DF02892B9091E002892B11F00E94C00582
:104A800086E0FE013196ABEDB2E001900D928A9581
:104A9000E1F70E94AF059091A502891721F080935C
:104AA000A5020E94B0048091FC02843009F064CE1B
:104AB00083E08093E9008091E80082FF5DCE8091E1
:104AC000E80090E085FF06C00E946403882309F493
:104AD0005BC091E08091E8008B778093E800992398
:104AE00009F44ACEE981E150E53108F076C0F0E002
:104AF000E25CF34D0C94412961E0892D0E9442064D
:104B0000182F60E0892D0E944206E12FEE0F8E2BB8
:104B1000092D10E0D801AF55BD4FEC919E2F937039
:104B2000891721F1EE0FEE0FE82BEC938091A00294
:104B3000890DEF70F0E0EE55FE4F02561D4FA0803C
:104B4000D8019C91A90EAC92B3E060E0BA1524F0B4
:104B5000EDEFAE161CF461E00E946D068A2DAA0CE2
:104B6000990BB6010E942D29D8018C939394B0CE55
:104B7000B092DD0218CFB092DE021DCFB092DF02FC
:104B800060CFB092E00265CF80E2882E912C8E013A
:104B90000F5F1F4F8091E80085FD0AC08091E800FB
:104BA0008B778093E8000E946403882399F391CF68
:104BB0008091F100F80181938F01F1E08F1A910843
:104BC00049F787CF1A828CE08B831BC08A818230A1
:104BD00009F42BC128F4813061F08FEF898311C073
:104BE0008330C1F08430C9F71B821C821D821E8273
:104BF00008C00E94B0040E9447296B837C838D8388
:104C00009E8340E250E0BE016F5F7F4F82E00E94D2
:104C1000E309B2CD2B81822F90E0FE013496245E11
:104C20008A30910570F7DC01AA55BD4F3C91319354
:104C300001962813F5CFE5CF8A81823019F08530AF
:104C400001F3CBCF6B817C818D819E810E944729AE
:104C500087E290E00E946C29D4CF4C816B818A81DD
:104C60000E94A20C9827892798279E838D83C9CFFD
:104C70002D813E813227232732274C816B818A8107
:104C80000E94A10BBECF0E94C70BBBCF20E12A839D
:104C9000B8CF1A8284EF98CF0A811B811027012791
:104CA0001027CE0101963C018C80DC01A80DB11DBE
:104CB0004D01C801845F9C4F8614970409F4A1CF6D
:104CC000043F110550F40E944E29F30184830F5FC5
:104CD0001F4FBFEF6B1A7B0AECCFD30114961C92C7
:104CE000F6CF0A811B81102701271027FE0131967C
:104CF0003F018C80800E912E911CC801845F9C4FD7
:104D00000815190509F47DCF043F110528F4D301D6
:104D100014966C910E946C29BFEF6B1A7B0A0F5F8F
:104D20001F4FEBCF0E94600B6CCF85E08A8369CF69
:104D30000A811B81102701271027FE0131963F01B0
:104D40008C80CF01880D911D4C01C8018896861476
:104D5000970409F456CF0C3BA2E01A0750F40E94C6
:104D60004E29F30184830F5F1F4FBFEF6B1A7B0A3D
:104D7000ECCFD30114961C92F6CF0A811B81102729
:104D800001271027FE0131963F018C80800E912E65
:104D9000911CC80188960815190509F432CF0C3BFF
:104DA000F2E01F0728F4D30114966C910E946C293D
:104DB000BFEF6B1A7B0A0F5F1F4FEBCF41E08C8177
:104DC000811101C040E06B818A810E94690C4ACF49
:104DD0002D813E8132272327322741E08C818111AA
:104DE00001C040E06B818A810E94700B0ACF8091E4
:104DF000FB02882309F446CD90E199BD09BD09B4B1
:104E000000FEFDCF8091D8008F7D8093D8008091E7
:104E1000E00082608093E0008091E00081FDFCCFA3
:104E20001092F1020E94DE132DCD87E290E00E94E5
:104E30004E291B821C821D828E83E3CE2B303105CE
:104E400008F0D1CD06CE2B30310508F07ECDB3CDA4
:104E50008EE1489B02C08150E1F7489BFECF089548
:104E6000589880E28A95F1F7589A0895FC013BE042
:104E70003A95F1F798E020E080E031E040E14A9592
:104E8000F1F7880F489B02C08160232742E04A95D2
:104E9000F1F7000040E14A95F1F7915079F790E180
:104EA0009A95F1F799B132E03A95F1F7000040E1B7
:104EB0004A95F1F7917092272081920F908308957F
:104EC000A1E0B0E0E6E6F7E20C94EE2819828C014E
:104ED0007C01E60EF11C0E151F0541F481E099815D
:104EE000911180E02196E6E00C940A290E9428277F
:104EF000CE0101960E943627F80181938F01EBCFF6
:104F0000509A589A08955098589AE89AE9E6F0E02D
:104F100080818C7F808308956150770B91E001C080
:104F2000990F6A95EAF720E031E0911108C0222339
:104F300091F0589A80E28A95F1F758980895492F90
:104F4000482339F0589A232740E24A95F1F796957D
:104F5000ECCF5898F9CF5898EDCFFF920F931F934D
:104F6000CF93DF93EC018C01060F111DC017D10701
:104F700029F4CDB7DEB7E5E00C940B29F9900E9437
:104F8000302768E08F2D0E948C27F0CF1F920F9260
:104F90000FB60F9211240F931F932F933F934F93AC
:104FA0005F936F937F938F939F93AF93BF93EF9391
:104FB000FF93CF93DF930F92CDB7DEB719820E9494
:104FC0002827CE0101960E943627082F06950695C0
:104FD0000695282F22952570902F9570290F922FD6
:104FE000937026952695920F982797708981982B14
:104FF00009F05CC0093008F059C080E18A95F1F7EA
:10500000589A509A82E08A95F1F700C0589888E043
:10501000089F80011124D801AE5FBE4F1696ED9116
:10502000FC9117973097A9F06091940170919501C8
:1050300014962D913C911597260F371F11968D913F
:105040009C911297680F791F13964C9113978C912E
:105050000995F801EE5FFE4F6381662351F02091C0
:1050600094013091950184819581820F931F0E9454
:10507000AD270E94302780E18A95F1F75898509823
:10508000589A80E18A95F1F7F801EE5FFE4F608152
:10509000662351F020919401309195018181928194
:1050A000820F931F0E9460270E9428270F90DF9194
:1050B000CF91FF91EF91BF91AF919F918F917F9190
:1050C0006F915F914F913F912F911F910F910F9091
:1050D0000FBE0F901F9018950F931F93CF93DF93E0
:1050E000EC0109970CF04CC0F894509A589885E060
:1050F0008A95F1F700009C2F969595708C2F8570FE
:10510000980F892F83709695969523E0CC0FDD1F1D
:105110002A95E1F7980F8E01092B0E94302700C0D5
:1051200068E0802F0E948C2780E18A95F1F75098E3
:10513000589A489B1EC087E090E048991CC0FE0129
:10514000EE5FFE4F63816623F9F020919401309168
:10515000950184819581820F931F0E9460278111A0
:1051600013C0509A589A7894DF91CF911F910F9164
:10517000089500C0DECF019729F4509A589A789488
:1051800080E0F2CF00C0D9CF0E94282780E28A9524
:10519000F1F75898509A80E18A95F1F7CE5FDE4F8B
:1051A0006881662351F020919401309195018981A5
:1051B0009A81820F931F0E94AD270E943027789416
:1051C00081E0D2CF2F923F924F925F926F927F9267
:1051D0008F929F92AF92BF92CF92DF92EF92FF9207
:1051E0000F931F93CF93DF93CDB7DEB7CA1BDB0BB3
:1051F0000FB6F894DEBF0FBECDBF09942A88398858
:1052000048885F846E847D848C849B84AA84B9845E
:10521000C884DF80EE80FD800C811B81AA81B9816A
:10522000CE0FD11D0FB6F894DEBF0FBECDBFED017E
:105230000895AA1BBB1B51E107C0AA1FBB1FA617DD
:10524000B70710F0A61BB70B881F991F5A95A9F72F
:1052500080959095BC01CD01089597FB072E16F41B
:10526000009407D077FD09D00E94192907FC05D0CA
:105270003EF4909581959F4F0895709561957F4F6D
:105280000895EE0FFF1F0590F491E02D0994692712
:10529000962769277827872778270895F999FECFD9
:1052A00092BD81BDF89A992780B50895A8E1B0E034
:1052B00042E050E00C949229DC01A40FB51F41504C
:1052C000504048F0CB01840F951F2E910E946D290C
:1052D00041505040D0F70895262FF999FECF92BD46
:1052E00081BDF89A019700B4021639F01FBA20BDAB
:1052F0000FB6F894FA9AF99A0FBE08950396272FDD
:105300000E946D290E946C29252F0E946D29242F4F
:105310000C946D290196272F0E946D290C946C29FD
:10532000DC01CB01FC01F999FECF06C0F2BDE1BD65
:10533000F89A319600B40D9241505040B8F7089554
:105340005058BB27AA270E94B8290C94F02A0E9423
:10535000B72A38F00E94BE2A20F039F49F3F19F492
:1053600026F40C94B42A0EF4E095E7FB0C94AE2AD4
:10537000E92F0E94152B58F3BA17620773078407A9
:10538000950720F079F4A6F50C94372B0EF4E095F0
:105390000B2EBA2FA02D0B01B90190010C01CA01EF
:1053A000A0011124FF27591B99F0593F50F4503E9A
:1053B00068F11A16F040A22F232F342F4427585F8C
:1053C000F3CF469537952795A795F0405395C9F7A4
:1053D0007EF41F16BA0B620B730B840BBAF091505C
:1053E000A1F0FF0FBB1F661F771F881FC2F70EC0FB
:1053F000BA0F621F731F841F48F4879577956795CE
:10540000B795F7959E3F08F0B0CF9395880F08F0B9
:105410009927EE0F9795879508950E948A2A08F498
:1054200081E008950E94C72AE3950C94012B0E9405
:105430001E2A6894B1110C94382B08950E941D2BDC
:1054400088F09F5798F0B92F9927B751B0F0E1F045
:10545000660F771F881F991F1AF0BA95C9F714C0F5
:10546000B13091F00E94372BB1E008950C94372BA6
:10547000672F782F8827B85F39F0B93FCCF386952E
:1054800077956795B395D9F73EF49095809570958B
:1054900061957F4F8F4F9F4F0895E89409C097FB08
:1054A0003EF490958095709561957F4F8F4F9F4FFB
:1054B0009923A9F0F92F96E9BB279395F69587953F
:1054C00077956795B795F111F8CFFAF4BB0F11F402
:1054D00060FF1BC06F5F7F4F8F4F9F4F16C08823A9
:1054E00011F096E911C0772321F09EE8872F762FDF
:1054F00005C0662371F096E8862F70E060E02AF020
:105500009A95660F771F881FDAF7880F969587950B
:1055100097F90895990F0008550FAA0BE0E8FEEFE0
:1055200016161706E807F907C0F012161306E40767
:10553000F50798F0621B730B840B950B39F40A2660
:1055400061F0232B242B252B21F408950A2609F43E
:10555000A140A6958FEF811D811D089597F99F6742
:1055600080E870E060E008959FEF80EC08950024EB
:105570000A941616170618060906089500240A94B8
:10558000121613061406050608950C94B42A0E94F8
:105590001D2BD8F3E894E0E0BB279F57F0F02AEDED
:1055A0003FE049EC06C0EE0FBB0F661F771F881F58
:1055B00028F0B23A62077307840728F0B25A620BE8
:1055C000730B840BE3959A9572F7803830F49A95B3
:1055D000BB0F661F771F881FD2F790480C94BA2B19
:1055E000092E0394000C11F4882352F0BB0F40F4F1
:1055F000BF2B11F460FF04C06F5F7F4F8F4F9F4F31
:105600000895EF93E0FF07C0A2EA2AED3FE049ECDE
:105610005FEB0E94B8290E94F02A0F90039401FCCE
:105620009058ECEAF0E00C94C62B57FD9058440FCC
:10563000551F59F05F3F71F04795880F97FB991FF1
:1056400061F09F3F79F087950895121613061406AE
:10565000551FF2CF4695F1DF08C01616170618063B
:10566000991FF1CF86957105610508940895E89416
:10567000BB2766277727CB0197F908950E948A2ACE
:1056800008F48FEF08950E94562B0C94F02A0E9484
:10569000B72A38F00E94BE2A20F0952311F00C940E
:1056A000AE2A0C94B42A11240C94382B0E94152B8A
:1056B00070F3959FC1F3950F50E0551F629FF00165
:1056C000729FBB27F00DB11D639FAA27F00DB11D7E
:1056D000AA1F649F6627B00DA11D661F829F222707
:1056E000B00DA11D621F739FB00DA11D621F839F8E
:1056F000A00D611D221F749F3327A00D611D231F64
:10570000849F600D211D822F762F6A2F11249F57B1
:1057100050409AF0F1F088234AF0EE0FFF1FBB1FB4
:10572000661F771F881F91505040A9F79E3F510573
:1057300080F00C94AE2A0C94382B5F3FE4F3983E33
:10574000D4F3869577956795B795F795E7959F5F1D
:10575000C1F7FE2B880F911D9695879597F90895AF
:105760009F930E94C72A0F9007FCEE5F0C94012BB9
:105770009F3F31F0915020F4879577956795B795C5
:10578000880F911D9695879597F908959F938F930C
:105790007F936F93FF93EF939B01AC010E94432B88
:1057A000EF91FF910E94DA2B2F913F914F915F91E2
:1057B0000C94432BDF93CF931F930F93FF92EF92A1
:1057C000DF927B018C01689406C0DA2EEF010E9403
:1057D000562BFE01E894A59125913591459155915F
:1057E000A6F3EF010E94B829FE019701A801DA94FF
:1057F00069F7DF90EF90FF900F911F91CF91DF91AC
:105800000895FB01DC0104C08D910190801921F401
:1058100041505040C8F7881B990B0895FB01DC01EB
:1058200002C001900D9241505040D8F70895F8946D
:10583000FFCFF4141C156F151C156F154F1581152E
:105840006F157E168B16E217261855188018AD189E
:10585000CF18E618FA182319341951196019661966
:10586000B919E019901B901BC81BC81B521C6C1C5B
:10587000EF1BEF1B711CDC1CEB1CEB1CE225E6256F
:105880001C262D2638264326ED25ED25ED25ED2574
:10589000ED25462649264C267126922695269826E1
:0658A000BD26DE26E8260D
:1058A600E204000000010000000000000005010005
:1058B60000000000000106000000000000080700CC
:1058C6000000000000000000A406000000010F0018
:1058D6000000000000061000000002160000000094
:1058E600000001C804330A2C0A250A1E0A0000809B
:1058F6003F0000803FE20400000100818283E20055
:10590600E900EA00B500B600B700CD008301CC007F
:105916008A01920194012102230224022502260211
:1059260027022A02B300B4006F0070009F01CB016A
:105936009F02A00262026697C63435F4F5939294EC
:10594600333200FF0100010000FFFF0000010001EB
:10595600FF004422B6A2018001CA008C05A505C538
:0259660005003A
:00000001FF
