:100000000C9407030C944B2A0C9424030C942403A3
:100010000C9424030C9424030C9424030C942403C4
:100020000C9424030C9424030C94BB1F0C94771F92
:100030000C9424030C9424030C9424030C942403A4
:100040000C9424030C9424030C9424030C94240394
:100050000C9424030C9493200C9424030C942403F8
:100060000C9424030C9424030C9424030C94240374
:100070000C9424030C9424030C9424030C94240364
:100080000C9424030C9424030C9424030C94240354
:100090000C9424030C9424030C9424030C94240344
:1000A0000C9424030C9424030C94240305010902EA
:1000B000A10185020901A1000509190129081500FE
:1000C0002501950875018102050109300931158165
:1000D000257F95027508810609381581257F9501D0
:1000E00075088106050C0A38021581257F95017572
:1000F000088106C0C005010980A101850319012AF4
:10010000B700150126B700950175108100C0050CD8
:100110000901A101850419012AA002150126A002E6
:10012000950175108100C005010906A1018506052C
:100130000719E029E71500250195087501810205D9
:1001400007190029EF1500250195F07501810205B9
:10015000081901290595057501910295017503910D
:1001600001C00660FF0961A1010962150026FF00B8
:100170009520750881020963150026FF00952075FA
:10018000089102C005010906A101050719E029E748
:1001900015002501950875018102950175088101F9
:1001A0000507190029FF150026FF0095067508812F
:1001B000000508190129051500250195057501910E
:1001C00002950175039101C00000000000000000CD
:1001D000000000000000000000000000000000001F
:1001E0000000000000000000000000007E0F00D4AE
:1001F000FFFFFFC7000000780000000000000000C3
:100200002A2B280000000000000000000000000071
:1002100000000029000000002C1E3420212224347C
:100220002627252E362D3738271E1F20212223244E
:1002300025263333362E37381F0405060708090AEA
:100240000B0C0D0E0F101112131415161718191A86
:100250001B1C1D2F3130232D350405060708090A04
:100260000B0C0D0E0F101112131415161718191A66
:100270001B1C1D2F3130354C29001E001F00200093
:1002800021002200A8002B0014001A00080015000D
:1002900017002800E20004001600070009000A0009
:1002A0003801E1001D001B000600190005004C008C
:1002B000E000E300E200447E2A002C00417ED100F1
:1002C000230024002500260027004600D1001C0042
:1002D00018000C00120013008900D1000B000D0063
:1002E0000E000F0033003400D10011001000360062
:1002F00037003800E500427E28002D00437E3000A4
:1003000032002F0029003B003B003C003D003E0036
:1003100044002B001701D100520843022B0668004D
:10032000E2001A0150082B054F082B046900E10078
:1003300016083D04510817082B084C00E000E300A4
:10034000E20001002A002C0001002E003F004000C6
:1003500041004200430048002B0355005F0060004D
:100360006100560089002B0154005C005D005E00B6
:1003700057004C7ED300340059005A005B002E0019
:10038000E500010028002D00620063004B7E4A7EDC
:1003900029003B003B003C003D003E0044002B0098
:1003A00014001A000800150017006800E20004009D
:1003B0001600070009000A006900E1001D001B008B
:1003C0000600190005004C00E000E300E200447E56
:1003D0002A002C00010045003F004000410042007F
:1003E00043004800B700D1004A0052004D004302CC
:1003F0002900B6004A00500051004F004D004F7ECA
:10040000D3004E00477E467E457E4B00E50001004E
:10041000487E8700437EDC004E7E4D7E29003B00F7
:100420003B003C003D003E0044002B006A006B0096
:100430006C006D006E00D100E2006A016B016C017E
:100440006D016E01D200E1006A026B026C026D0266
:100450006E024C00E000E300E200447E2A002C0023
:10046000010045003F0040004100420043004800B9
:10047000D2006F0070007100720073002900D1007B
:100480006F0170017101720173012900D3006F02C5
:100490007002710272027302E500010028008700F9
:1004A0000100DC0000002F0029003A003B003C0066
:1004B0003D003E0044002B001E021F0220022102CC
:1004C00022022800E2001E041F042004210422044A
:1004D0004400E1003A003B003C003D003E004C007F
:1004E000E000E300E20001002A002C00417E45000C
:1004F0003F00400041004200430046002E0023021E
:100500002402250226022702290045002304240490
:100510002504260427043400D3003F004000410096
:1005200042004300E500427E28002D00437E30005B
:1005300032002F00DA00D900D900DA00DA00D90041
:10054000D900DA00DA00D900D900DA00AA00A9003F
:10055000A900AA00AA00A900A900AA0009025B003C
:10056000030100A0FA0904000001030101000921B0
:10057000110100012244000705810308000109045C
:1005800001000203000000092111010001222200E4
:100590000705820320000107050303200001090469
:1005A0000200010300000009211101000122B60030
:1005B000070584032000011201000200000008ABBF
:1005C000AA02000001010200010E034D006F006F3E
:1005D000006F00730065000000100361007400618B
:1005E00000720075006E006F00000004030904052E
:1005F000A84CCDB2D44EB93836A9020C50B9918668
:1006000088083CA6AAAA2ABE000000803F00112448
:100610001FBECFEFDAE0DEBFCDBF11E0A0E0B1E05A
:10062000E0EDFDE502C005900D92A83BB107D9F7BA
:1006300023E0A8EBB1E001C01D92A434B207E1F7BA
:100640000E94B7200C949D2E0C940000982FE091EE
:10065000430340910A0357E0E41302C080E0089589
:100660002E2F30E05E9FF0011124E55FFC4F818169
:10067000681306C08081981303C085818111EFCF74
:10068000F9013196E770E8CFE8EDF0E080818E7FE8
:1006900080831092E2001092DA001092E100A0EE46
:1006A000B0E08C9181608C9380818F77808319BCBE
:1006B000A7EDB0E08C918E7F8C9380818F7E8083BC
:1006C0001092F20208952091E4003091E50095E641
:1006D000A9012091EC00822F817020FF06C080913B
:1006E000E80080FF06C080E008952091E80022FD28
:1006F0001AC080910003882389F0853089F08091A9
:10070000EB0085FD0FC02091E4003091E500421719
:100710005307F9F29150E1F684E0089582E00895DC
:1007200083E0089581E008958091020387FF13C05C
:100730008091E80082FF06C08091E8008B7780936B
:10074000E80004C0809100038111F2CF08958091E8
:1007500000038823D9F38091E80080FFF8CF8091CF
:10076000E8008E77ECCF982F9093E900242F762F16
:1007700050E0891731F07091EC002091ED0050911C
:10078000F00021FD07C09F5F973071F78093E9006B
:1007900081E008953091EB003E7F3093EB00309183
:1007A000ED003D7F3093ED003091EB0031603093F0
:1007B000EB007093EC002093ED005093F00020913B
:1007C000EE0027FDE0CF80E00895B0E0A0E0EBEE82
:1007D000F3E00C94D32DC8EDD0E088818F7E888320
:1007E000E7EDF0E080818160808384E082BF81E07A
:1007F0008093F20288818E7F888302EE10E0F801F8
:1008000010821092DA0081EEC82ED12CF6011082EF
:1008100088818F77888388818068888388818F7DAD
:10082000888319BC10920003109201031092FF02FA
:100830001092FE0290EEE92EF12CF70180818B7F61
:10084000808388818160888342E060E080E00E944C
:10085000B303F60180818E7F8083F80180818160FF
:100860008083808188608083F70180818E7F808390
:10087000888180618883CDB7DEB7E8E00C94EF2DE6
:10088000FC01CB012091080330910903261737079B
:1008900090F0009729F42091E8002E772093E8004B
:1008A00040E0009751F4411108C08091E80082FFB8
:1008B00031C080E00895C901F3CF209100032223C5
:1008C000A9F12530A9F12091E80023FD2DC0209148
:1008D000E80022FDEACF2091E80020FFE2CF30912E
:1008E000F3002091F200009719F02830310558F0FC
:1008F00041E02830310509F040E02091E8002E77F2
:100900002093E800CECF41914093F10001972F5FF3
:100910003F4FE9CF80910003882341F0853041F0BB
:100920008091E80083FFC1CF81E0089582E00895BF
:1009300083E008958091F502089587E797E7909303
:1009400001088093000888E19AE00FB6F894A89512
:10095000809360000FBE90936000FFCF9C014FB763
:10096000F8948091EE029091EF02A091F002B09184
:10097000F1024FBF821B930B0895A4E0B0E0E3ECBB
:10098000F4E00C94D92D8FB7F8942091EE023091B9
:10099000EF024091F0025091F10229833A834B8398
:1009A0005C838FBF69817A818B819C812496E2E090
:1009B0000C94F52D2FB7F8948091EE029091EF02F0
:1009C000A091F002B091F1022FBF0895DC01FB016C
:1009D00011969C9111978181981322C012968C9147
:1009E0001297882319F0928189131AC013968C915B
:1009F0001397882319F09381891312C015968C914F
:100A00001597882319F0958189130AC014969C9133
:100A1000992321F081E02481291303C080E001C0E3
:100A200081E081700895909153019923E1F09091B4
:100A3000EC0297FF18C0E82FE695E695E695803F13
:100A4000F0F4F0E0EE53FE4F877021E030E0A901B2
:100A500002C0440F551F8A95E2F7CA018095928122
:100A6000892382830895ECEBF1E09191891303C00F
:100A7000DF0111971C9251E0E23CF507B1F70895B0
:100A8000909153019923C1F09091EC0297FF14C00B
:100A9000E82FE695E695E695803FF8F4F0E0EE5312
:100AA000FE4F877021E030E001C0220F8A95EAF7FF
:100AB0008281822B82830895ACEBB1E0EFEF90E06E
:100AC0002D91821751F0EF3F19F4211101C0E92F48
:100AD0009F5F9630A9F7EF3F09F408950E2E000CA2
:100AE000FF0BE654FE4FE6CFA3E0B0E0EAE7F5E007
:100AF0000C94D92D9C018091EA029091EB0282170F
:100B00009307A1F03093EB022093EA02E091E80210
:100B1000F091E902309751F084E089833B832A8386
:100B20000084F185E02DCE01019609952396E2E03F
:100B30000C94F52DA3E0B0E0E0EAF5E00C94D92D9B
:100B40009C018091E6029091E70282179307A1F041
:100B50003093E7022093E602E091E802F091E90287
:100B6000309751F083E089833B832A830084F185A9
:100B7000E02DCE01019609952396E2E00C94F52D27
:100B8000DC01E091E802F091E902309739F082E06F
:100B90008C930680F781E02DCD0109950895809111
:100BA000E402882359F0E091E802F091E9023097DD
:100BB00029F00190F081E02D0995089580E00895D5
:100BC0000E94DA042091E0023091E102232B21F00F
:100BD0008093DC029093DD022091E2023091E302E7
:100BE000232B21F08093DA029093DB028EED92E0CA
:100BF0000E94C00508958091D90280FD16C081FD34
:100C000016C082FD16C08091D8028823A1F08832D8
:100C100080F428E0829FC001112468E270E00E9405
:100C2000142E862F672B39F0089582E0089584E012
:100C3000089588E0089581E008958091D90280FDAB
:100C400014C081FD14C082FD16C08091D702882394
:100C500081F08E3180F420E5829FC00111246EE185
:100C600070E00E94142E862F089584E1089588E292
:100C7000089588E0089580E50895282F35EB230333
:100C8000C001112497FF04C080589109892F08954D
:100C900080589F4FFBCFFC01680F791F8FEF91E3C6
:100CA0002191822728E030E087FF09C0880F89273B
:100CB00021503109C9F7E617F70791F70895880F12
:100CC000F7CF21E9611126E3E22FE295EF70F0E022
:100CD00080A190E02F7002C0959587952A95E2F744
:100CE0008170089581E9611186E3E82FE295EF7044
:100CF000F0E041A18F7021E030E0B90102C0660F41
:100D0000771F8A95E2F7CB01962F9095942391A3B4
:100D100092A1892B82A308959091D102292F30E0CE
:100D20007091D202A9014F5F5F4F4370552774172E
:100D3000150689F02D523D4F60FB87F9F90180833C
:100D40009F5F93709093D1028091CF028F5F8093C9
:100D5000CF0281E0089580E00895299A08952998A6
:100D6000089580E0089581E0809396020895F894B4
:100D7000E82FE295EF70F0E041A18F7021E030E0C4
:100D8000B90102C0660F771F8A95E2F7CB01962F53
:100D90009095942391A392A1892B82A3789408958E
:100DA0009091EC0292FF10C041E0282F2471243072
:100DB00009F040E031E0282F2871283009F030E0B8
:100DC000431711F02CE0822793FF10C041E0282F39
:100DD0002471243109F040E031E0282F28712831B6
:100DE00009F030E0431711F02CE082273091ED023A
:100DF00030FF10C051E0282F2171213009F050E060
:100E000041E0282F2871283009F040E0541711F0F4
:100E100029E0822731FF10C041E0282F21712131C4
:100E200009F040E031E0282F2871283109F030E046
:100E3000431711F029E0822794FD877E0895803EB4
:100E40009105C1F1C8F48133910509F47DC048F4DE
:100E50008932910509F46DC08A32910509F47BC08D
:100E6000089589339105D1F082389105B9F0853321
:100E7000910509F459C00895843E9105C1F138F4F3
:100E8000823E910521F1833E910531F10895863E20
:100E90009105C1F1873E9105E1F108952091EC02A1
:100EA000237009F065C02091ED0223FF14C089E290
:100EB00090E008952091EC0220FD43C03091ED02B6
:100EC00030FF09C024FF4EC090E080E008952091DB
:100ED000EC0222FDF7CF08952091EC0222FD45C0DF
:100EE0003091ED0230FD44C024FFF5CFEDCF2091CD
:100EF000ED0221FFF0CF8091EC0284FDE5CF87EE7B
:100F000090E008952091EC0223FFE5CF24FDDCCF93
:100F1000F6CF2091EC0223FD2EC03091ED0231FF7F
:100F2000E3CF84EE90E008952091EC0225FFD3CF2B
:100F3000BECF2091EC0225FD21C02091ED0223FFC0
:100F4000CACF89E390E0C7CF2091EC0226FFC3CF40
:100F50008AE290E008952091EC0226FFBCCF81E365
:100F600090E0089583EE90E0089582EE90E0089579
:100F700080EE90E0089586EE90E0089585E390E09D
:100F800008951F93CF93DF930E941F07EC018115F3
:100F9000924508F05FC0C11580E5D80708F0DDC0B4
:100FA000C03ED10538F5CD3CD10508F0AEC0C83AF9
:100FB000D10580F4C53AD10508F0A4C0C130D105EF
:100FC00009F443C0CE010497813A9105F0F1D0E0D5
:100FD000C0E03BC0CE01885A91094B97C0F7C85A70
:100FE000D0E0CC0FDD1FCC5ADE4F0990D881C02D48
:100FF000D4642BC0C11590E4D907F0F4C11520E2E8
:10100000D20708F0C4C0C83ED105F8F0CE019A95C9
:1010100081159F41E0F68D2F0E94D006182FCE013A
:1010200099270E941F07C12FD0E0DC2FCC27CC27A7
:10103000DF71C82BD92B09C0CE0199270E941F0749
:10104000CC27DF70C82BD92BD06ACE01DF91CF918E
:101050001F910895C03882E5D807B8F5C03692E5EB
:10106000D90708F05BC0C03422E5D207C8F4C0320B
:1010700082E5D80708F04BC02C2F2695269590E2E4
:10108000299F900111248C2F8370C1E0D0E002C011
:10109000CC0FDD1F8A95E2F7C22BD32BDD68D5CFAD
:1010A0002C2F26952695277080E2289F90011124E9
:1010B0008C2F8370C1E0D0E002C0CC0FDD1F8A9579
:1010C000E2F7C22BD32BDC68C0CFC03C92E5D90736
:1010D00060F48C2F8F71C03AD245A8F5C82FD0E0AC
:1010E000DC2FCC27C46FD06AB0CFCE01805C924594
:1010F000809708F06CCFDC2FCC27CC27DF71C06F36
:10110000D06AA3CFA497D064A0CFD0659ECFCF7173
:10111000D0E0DC2FCC27C16FD06A97CF2C2F26953B
:101120002695277080E2289F900111248C2F8370D0
:10113000C1E0D0E002C0CC0FDD1F8A95E2F7C22BE0
:10114000D32BDA6882CF0E94D006C82FD0E0DC2FE4
:10115000CC27CC27DF71D06278CF8C2F8F710E9483
:10116000D00655E0D695C7955A95E1F7CF70D0E0F7
:10117000DC2FCC27282F30E084FF05C044E0220F6D
:10118000331F4A95E1F7C22BD32BD0695ECF8D2F49
:101190008F710E94D006182FCE0199270E941F0739
:1011A000C12FD0E0DC2FCC27CC27DF71C82BD92B67
:1011B000D2CF982F90958091F30289238093F302E8
:1011C00008958091F30290911102892B9091100261
:1011D000992391F0892B90915301992371F090916B
:1011E000EC0297FF0AC09EE124EC31E040E0915010
:1011F00040F4411110921002089596E02CEB31E07A
:10120000F5CFF90151919F01552389F34F5FEFCF3E
:101210008091430390910A03981301C008958F5F52
:101220008770FACF9C01982F977083E036952795A9
:101230008A95E1F7F901EE0FFF1FE20FF31FE60FAA
:10124000F71F50E040E080E0219130E0092E02C01D
:10125000369527950A94E2F721703327042E01C0B2
:10126000220F0A94EAF7822B4F5F5F4F43305105FC
:1012700059F70895292F9A3068F4873090F490E058
:101280006DEE71E037E0239F800D911D11240E94C7
:10129000120908952C5F223020F46AEE71E090E08C
:1012A000F6CF80E008959B01677091E001C0990F2F
:1012B0006A95EAF763E0369527956A95E1F7F901B3
:1012C000EE0FFF1FE20FF31FE40FF51F50E040E0A9
:1012D000682F70E08191DF0111979B01042E02C0FD
:1012E000369527950A94E2F721702195282729231E
:1012F00028272C934F5F5F4F4330510559F70895CE
:10130000282F862F9A3070F4273058F4622F70E01F
:1013100027E0929F600D711D11244DEE51E00E9457
:10132000530908959C5F9230E0F7622F70E04AEE17
:1013300051E0F5CF8093840208959091840221E0DA
:1013400030E0F90101C0EE0F8A95EAF7D90102C039
:10135000AA0FBB1F6A95E2F7EA2B01C0220F4A953C
:10136000EAF7892F8E23E81305C0292B822F0E94CC
:101370009A09089520952923F9CF21E030E001C092
:10138000220F8A95EAF720958091840282230E9499
:101390009A09089590910F028095892380930F02F6
:1013A000282F277069F4891759F09091ED0292FF68
:1013B00007C08695869586950E94BD0910920F02FA
:1013C000089521E030E001C0220F8A95EAF780916C
:1013D0008402822B0E949A090895809383020895C3
:1013E0000F931F93CF93DF938B01EA01909100033A
:1013F000943061F58093E9008FEF9091E80081507F
:1014000095FD06C095ED9A95F1F700008111F5CF95
:101410008091E80085FF1AC00E946303811111C00A
:101420008091E80085FD06C08091E8008E7780936A
:10143000E800F2CFF80181918F018093F1002197AC
:1014400079F78091E8008E778093E800DF91CF9163
:101450001F910F910895BC0143E050E084E00E9489
:10146000F0090895BC0146E050E084E00E94F009D4
:101470000895BC0140E250E084E00E94F009089524
:10148000CF93DF93D82FC92F48E050E0682F792FF2
:1014900081E00E94F00988E0ED2FFC2FA6EFB2E07A
:1014A00001900D928A95E1F7DF91CF910895869A88
:1014B00027E030E090E08F98AC01022E02C05595F5
:1014C00047950A94E2F740FF0EC08E9A4AE04A958B
:1014D000F1F700C08F9A2150310968F785E18A95AC
:1014E000F1F7000008958E98F1CFCF93C1E08D37CA
:1014F000910550F0CDE0863D26E0920728F46DE797
:1015000070E00E94002EC62F0E94AF0689E90E945B
:10151000570A8C2F80610E94570A0E94AD06CF9116
:10152000089586988E9898E080E08F9825E02A9517
:10153000F1F700002FB126FB222720F9880F822B1C
:101540008F9A25E02A95F1F70000915071F70895E0
:10155000CF930E94AF0689E10E94570A0E94910A28
:10156000C82F25E02A95F1F700000E94AD06C07152
:101570002DE7C29FC0011124CF910895CF93DF932F
:101580000E94AF0683E60E94570A0E94910AD82F54
:101590000E94910AC82F0E94AD068D2FD7FD80684A
:1015A0009C2FC7FD9068DF91CF910895ACE0B0E02B
:1015B000ECEDFAE00C94D72D4F8358878B879C87EE
:1015C000162F072F0E94BE0A811104C0911102C07C
:1015D000902F812F89879A8786E0FE013796DE015A
:1015E000119601900D928A95E1F729813A814B81FC
:1015F0005C816D817E8180E090E02C96E4E00C942B
:10160000F32D879A869A219A0E94AF068AEB0E9450
:10161000570A8AE50E94570A0E94AD062FE78FEA13
:1016200092E0215080409040E1F700C000000E940D
:10163000BE0A0895B0E0A0E0E0E2FBE00C94D12DFA
:10164000F82EE92ED62EC72E8A0180917602AA2482
:10165000A394B12C8A3018F48AE0A82EB12CC1E0F2
:10166000D0E06D2D7C2D8F2D9E2DF80109958111D7
:1016700004C02196AC16BD062CF4CDB7DEB7EAE067
:101680000C94ED2DCC9F9001CD9F300D300D112489
:1016900090E080E045E34A95F1F70000019682175B
:1016A0009307C1F7DECFCF93C82F6FEF811166E2AA
:1016B00084E290E00E94532E6FEFC11169E085E251
:1016C00090E00E94532E6FEFC11163E286E290E03A
:1016D0000E94532ECF910895CF93DF93CCE0D3E0B7
:1016E00060E0CE010E94532E2196C11584E0D807F8
:1016F000B9F7DF91CF9108950F931F93CF93DF93A5
:10170000962F142F022F632F853018F5923008F58D
:1017100028E0829FE001112424E0929FC00111245F
:10172000C80FD91FCC51DD4F82E090E0442311F067
:1017300090E080E08C0F9D1F0E94532E83E090E08C
:10174000112311F081E090E0602F8C0F9D1F0E940B
:10175000532EDF91CF911F910F9108951F93CF9337
:10176000DF93962F122F632F8530D8F49A30C8F468
:101770004730B8F4C42FD0E0CC0FDD1F2EE0929F8D
:10178000C00DD11D11249CE8899FC00DD11D1124CD
:10179000CE0188960E94532E612FCE0189960E9419
:1017A000532EDF91CF911F9108958F929F92BF92F8
:1017B000CF92DF92EF92FF920F931F93CF93DF931D
:1017C00004E315E0F12CE12CC0E04701D0E015C0A6
:1017D000F601259134914B2D6D2F8C2F0E94AE0B6D
:1017E00022E0C20ED11CB39437E0B312F1CF87E0F0
:1017F000880E911CDF5FDA3049F0C401880F991F11
:101800009C0128583D4F6901B12CE2CFF801259188
:10181000349141E060E08C2F0E947C0BF8013296FD
:101820002591349140E060E08C2F0E947C0BF80100
:1018300034962591349141E061E08C2F0E947C0B1D
:10184000F80136962591349140E061E08C2F0E949A
:101850007C0B085F1F4FCF5F36E4E30EF11CC530F1
:1018600009F0B3CFDF91CF911F910F91FF90EF90CF
:10187000DF90CF90BF909F908F90089580E00E945E
:10188000530B60E087E290E00E94532E0E94D50B3C
:101890000E946C0B81E00E94530B089584E290E05B
:1018A0000E94352E863289F485E290E00E94352E22
:1018B000893059F486E290E00E94352E91E083321F
:1018C00009F090E0892F8170089580E0FCCFFF92AD
:1018D0000F931F93CF93DF93F42E853070F5623012
:1018E00060F528E0829FE001112434E0639FB0019D
:1018F0001124C60FD71FCC51DD4F82E090E0442366
:1019000011F090E080E08C0F9D1F0E94352E082F73
:1019100010E0102F002783E090E0FF2011F081E01D
:1019200090E08C0F9D1F0E94352E9801282BC90135
:10193000CDB7DEB7E5E00C94F22D90E080E0F8CF73
:101940000F931F93CF93DF93853030F56A3020F5E6
:10195000473010F5C42FD0E0CC0FDD1F2EE0629F82
:10196000C00DD11D11243CE8839FC00DD11D112451
:10197000CE0188960E94352E082F10E0102F0027E8
:10198000CE0189960E94352E9801282BC901DF913E
:10199000CF911F910F91089590E080E0F8CF7A30B9
:1019A00048F4673070F4853060F4462F672F0E944A
:1019B000A00C08957D3F41F4623018F441E0853079
:1019C00050F080E090E008957C3FD9F76230C8F78E
:1019D0008530B8F740E00E94670C0895B0E0A0E0C1
:1019E000E4EFFCE00C94D42D7C0100918402809102
:1019F0008302082BC4E0D0E010E0DC2EC8010C2EDE
:101A000002C0959587950A94E2F780FD09C0219759
:101A1000A0F7D12C8D2DCDB7DEB7E7E00C94F02DDB
:101A2000B7018C2F0E94CF0C0E94C107019779F358
:101A3000F1CFCF93DF93D82FC92F0E94EE0C6D2FDB
:101A40007C2F0E94CF0C0E94C107DF91CF91089597
:101A5000FC0184818823A1F0808191810E94190D6D
:101A6000282F92959F70963091F060F4925F9F704E
:101A7000923030F481E0203F81F030F4283E30F0A5
:101A800080E004C09A5FF3CF243FD1F7089581E04E
:101A9000283E20F0213FA1F7F9CF08950895A6E050
:101AA000B0E0E5E5FDE00C94D82D49835A83392F49
:101AB00089819A81332399F0222389F00E94EE0CC8
:101AC000182F682F89819A810E94800969817A8103
:101AD000812F0E94CF0C2696E3E00C94F42D0E94F7
:101AE0003A09182FF3CFCF9363EC72E089EC92E0C0
:101AF0000E94E604C82F882321F089EC92E00E941E
:101B0000C0059091CA0286E0E9ECF2E0DF01282FDF
:101B10001D922A95E9F79093CA02A3ECB2E00190D6
:101B20000D928A95E1F781E0C11103C0911101C0C6
:101B300080E08170CF9108954091E0029091E2029F
:101B40002091E302662309F47EC0942B922B20910E
:101B5000E102922B31F098E09093D70291E09093BC
:101B6000D8028D3C41F40E941D0681958093E102CC
:101B70000E94E00508958E3C19F40E941D06F6CFE0
:101B80008F3C31F40E941D0681958093E002F0CFD6
:101B9000803D19F40E941D06F8CF893D29F40E946A
:101BA000FB058093E202E4CF8A3D21F40E94FB050D
:101BB0008195F7CF8B3D31F40E94FB058195809391
:101BC000E302D6CF8C3D19F40E94FB05F8CF9FE2CB
:101BD000980F983020F5282F215D330BA90121E0C3
:101BE00030E001C0220F4A95EAF79091DF02922B74
:101BF0009093DF02815D21E030E0A90102C0440F33
:101C0000551F8A95E2F7CA012091CA02662309F49A
:101C10008FC0822B8093CA020E94730D08958D3D60
:101C200031F48091D90281608093D902A1CF8E3D99
:101C300021F48091D9028260F7CF8F3D09F5809120
:101C4000D9028460F1CF8D3C59F49091E10297FF65
:101C50000DC01092E10241110BC01092D70208C0D2
:101C60008E3CB1F49091E10219169CF34423B1F03B
:101C70009091E2022091E302922B11F41092D8028B
:101C8000482F415D550B4830510508F4B3CF70CF54
:101C90008F3C49F447FFEACF1092E0029091E102B5
:101CA0009111E6CFDACF803D19F41416ACF3DECFF4
:101CB000893D29F41916D4F61092E202D7CF8A3D55
:101CC00019F497FFD3CFF8CF8B3D29F427FFCECF60
:101CD0001092E302CBCF8C3D19F41216CCF3C6CF91
:101CE0009FE2980F983088F4282F215D330BF9017B
:101CF00021E030E001C0220FEA95EAF720959091AB
:101D0000DF0229232093DF02B1CF9091D9029E7F79
:101D10008D3D59F09091D9029D7F8E3D31F08F3DE0
:101D200009F0A4CF9091D9029B7F9093D9029ECFC6
:101D3000809582236FCF9091ED0292FB222720F9AC
:101D4000281779F080FB92F99093ED026091EC02F4
:101D50007091ED0284E090E00E94712E82E00E947A
:101D6000CA090895A1E0B0E0E8EBFEE00C94CB2DA9
:101D7000462E4A01522EC32E3701A82E880FBB08CB
:101D8000C5010E94F22AD82E882309F476C0C50125
:101D900023E0880F991F2A95E1F7FC01EA5FFE4FC7
:101DA0002381422F50E0222311F041E050E08A5F6E
:101DB0009E4FDC0114966D917C916C5A7D4FCE0143
:101DC00001960E94942EF4014081518162817381B9
:101DD0002FB7F8948091EE029091EF02A091F0025B
:101DE000B091F1022FBF841B950BA60BB70B843665
:101DF0009105A105B10538F4B301C8010E944B0655
:101E000099818917D1F1E42C042C000CFF08C7013B
:101E10000E94F22AD82E811106C0D12C8D2D219638
:101E2000E0E10C94E72DB70183E0660F771F8A95F8
:101E3000E1F7FB01EA5FFE4F438150E0641675064F
:101E400008F4A3016A5F7E4FDB0114966D917C91CB
:101E50006C5A7D4F852D9C2D0E94942EB301C80194
:101E60000E944B0699818913D8CF0E94BD04F401CA
:101E70006083718382839383D1CFA301B801852DC1
:101E80009C2D0E94942ECACFACE0B0E0EAE4FFE0C3
:101E90000C94D52D8091E502811178C086E0E82E62
:101EA000F12C04E612E09E01295F3F4F42E752E029
:101EB00066E085E00E94B20E882391F096E0FE0174
:101EC0003796DE01119601900D929A95E1F796E012
:101ED000FE013196AEEAB2E001900D929A95E1F7DB
:101EE00000919702109198020115110509F44EC056
:101EF00010936B0200936A0220917002309171027C
:101F000040916C0250916D0260916E0270916F026F
:101F1000EFB7F8948091EE029091EF02A091F00259
:101F2000B091F102EFBF841B950BA60BB70B843663
:101F30009105A105B10518F42017310711F1809121
:101F40003F01909140018C5A9D4F20913E01422FBC
:101F500050E0233010F042E050E06AE672E00E9468
:101F6000942E87E090E00E94F22A882379F00E9464
:101F7000BD0460936C0270936D0280936E02909327
:101F80006F02109371020093700281E02C96E6E0DC
:101F90000C94F12DA8E0B0E0E0EDFFE00C94D52D1D
:101FA00088E0E82EF12C0BE512E09E012F5F3F4FF9
:101FB00040E552E063E082E00E94B20E182F8823D1
:101FC00089F190915A0280914F02981759F100E0DF
:101FD00090915E0280915D028917F1F0E92FF0E0A7
:101FE000E85AFD4F878187FB662760F99F5F9370F2
:101FF00090935E0290915C029F5F90935C028F775A
:102000000E948C06082F8111E3CF84E090E00E94AB
:10201000F22A102F182302C00111F7CF80915A0223
:1020200080934F02812F2896E6E00C94F12DA5E0D5
:10203000B0E0EDE1F0E10C94D32D6B0185E0E82EEA
:10204000F12C05E512E09E012F5F3F4F4BE452E07B
:1020500061E080E00E94B20E882349F095E0FE0125
:102060003196A6E4B2E001900D929A95E1F795E0E1
:10207000E6E4F2E0D60101900D929A95E1F72596FB
:10208000E8E00C94EF2DA9E1B0E0E9E4F0E10C9474
:10209000D02D1A821982FE01339688E0DF011D924D
:1020A0008A95E9F78CE8A82E81E0B82E10E000E0D0
:1020B000EE24E394F12C28E9C22E21E0D22EF50182
:1020C00081915F018F3F09F445C0F894E82FE295B4
:1020D000EF70F0E021A18F70A70102C0440F551FDF
:1020E0008A95E2F7CA01922F982B91A392A180952D
:1020F000892382A3789400C0E1E9F1E031E0912CDA
:1021000021912F3F09F4A2C0A22FA295AF70B0E099
:1021100090968C9190E02F7002C0959587952A95A6
:10212000E2F780FD93C0832F982A330FCE16DF0687
:1021300039F7F501319780818F3F11F00E94B70682
:1021400050EA5A95F1F7E1E0F0E0EC0FFD1FE00FE7
:10215000F11F90820F5F1F4F0530110509F0AFCFBF
:102160004AE050E0BE016F5F7F4F87E792E00E9438
:10217000872E9C01892B49F08AE0FE013196A7E762
:10218000B2E001900D928A95E1F70091820210E091
:1021900007541D4F232B09F45BC081E080933E025E
:1021A0000E94DA0490933D0280933C02F12CE0906F
:1021B000E402EE2009F4A5C01C861B86FE013D96B4
:1021C00083E0DF011D928A95E9F7809176028A30DB
:1021D00008F062C047E150E1BE01655F7F4FC80172
:1021E0000E941A0B882309F47BC04AEC5FE0BE0111
:1021F000655F7F4FC8010E941A0B882309F470C0E5
:1022000044E45FE0BE01655F7F4FC8010E941A0B86
:10221000882309F465C0109276028091810290E0D3
:1022200045E050E0BE01655F7F4F87549D4F0E949F
:10223000872E21E020934502892B09F044C0E12C30
:102240008E2D8F296996EBE00C94EC2D80E06CCFFD
:10225000F0903E02FF2009F4A9CF80913C029091BA
:102260003D020E94AE04059708F4A0CF45E050E07F
:1022700067E772E0C8010E94872E892B59F085E03C
:10228000E7E7F2E0D80101900D928A95E1F710920C
:102290003E028DCFF12CFBCF80913F029091400206
:1022A0000E94AE04843F914008F094CF8091450293
:1022B000882329F2FE013B9685E0DF011D928A9575
:1022C000E9F710924502A0918102B0E0A754BD4FFA
:1022D00085E0FE013B9601900D928A95E1F7B0CF23
:1022E000809176028F3F31F08F5F809376028A3043
:1022F00008F493CF0E94DA049093400280933F0247
:10230000D5CF85E0F801A5E5B2E001900D928A9560
:10231000E1F765E070E085E592E00E944B0680936E
:10232000540288E0EFECF2E0ABE5B2E001900D92F0
:102330008A95E1F768E070E08BE592E00E944B0639
:1023400080935A028091E502882309F479CF409165
:1023500041025091420260914302709144022FB7B2
:10236000F8948091EE029091EF02A091F002B0916A
:10237000F1022FBF481759076A077B0709F460CF9E
:102380000E94BD0460934102709342028093430215
:10239000909344020E94A80A9C0189E0E3E6F2E0DF
:1023A000DE011B9601900D928A95E1F78A899B893F
:1023B000009729F02817390711F00E94750AFE01CD
:1023C000749686E0DF011D928A95E9F74C895D8954
:1023D0006E897F89888D998D0E94D60A2C873D87CA
:1023E0004E875F87688B798B66E070E0CE010C9634
:1023F0000E944B068B8789E0FE013B96A3E6B2E084
:102400006ACF80915301882359F18091EC0287FFB4
:1024100027C00E94E1088093C30140E250E062E1DE
:1024200072E082EC91E00E94872E892BC1F080E25D
:10243000E2ECF1E0A2E1B2E001900D928A95E1F7C1
:10244000E091E802F091E902309749F086E080934C
:10245000C2010480F581E02D82EC91E00995089598
:102460000E94E1088093BA0148E050E062E372E024
:102470008AEB91E00E94872E892B89F388E0EAEBB2
:10248000F1E0A2E3B2E001900D928A95E1F7E091CC
:10249000E802F091E902309711F30280F381E02D18
:1024A0008AEB91E0DBCF80915301882339F1809151
:1024B000EC0287FF23C0E4ECF1E08EE1DF011D9226
:1024C0008A95E9F790E080E00E949A0590E080E02C
:1024D0000E947405109211020E94011286E0EEED36
:1024E000F2E0DF011D928A95E9F71092D70210926F
:1024F000D8021092D9020E94E0050895ECEBF1E0B9
:1025000086E0DCCFAAE2B0E0E8E8F2E10C94D82D56
:1025100082E093E0FC0101962091F100208323E00A
:102520008A309207B9F780910303893009F458C0C3
:10253000C8F4823009F4B5C0833009F484C0813016
:1025400081F18091E80083FF87C28091020390911E
:1025500003039A3008F080C2E92FF0E0E156F14D14
:102560000C94282E8A3009F48BC08B3051F780915F
:102570000203813231F78091060390910703892B82
:1025800001F78091E800877F8093E8000E94940320
:1025900080910403809353011092F3020E9453121E
:1025A000D0CF80910203813A61F68091E800877F65
:1025B0008093E8008091060390910703892B61F4D2
:1025C00068E086EF92E070E00E9440048091E800AD
:1025D0008B778093E800B5CF60E090E080E0F3CFA8
:1025E00080910203813209F0ACCF80910603909173
:1025F00007038D7F892B09F0A4CF8091E800877FA6
:102600008093E8008091E80082FF18C09091F30069
:102610008091F200029731F48091F100813011F045
:10262000863021F48091F1008093F5028091E800DA
:102630008B778093E8000E94940383CF80910003FE
:102640008111E0CF7ECF80910203813A09F079CFEA
:102650008091060390910703892B09F072CF809136
:10266000E800877F8093E8008091E80080FFFCCF3E
:10267000809153018093F1008091E8008E77D9CF4B
:1026800080910203813209F05CCF8091E800877F5E
:102690008093E8000E949403809105038093F402E4
:1026A00050CF80910203813A09F04BCF8091E8002E
:1026B000877F8093E8008091E80080FFFCCF8091C5
:1026C000F402D8CF803899F0823809F0C5C18091E2
:1026D00006038F70873008F0BFC18093E9008091B6
:1026E000EB0085FB882780F91092E90006C08091F5
:1026F000FE029091FF02911182609091E800977F15
:102700009093E8008093F1001092F1008091E8002E
:102710008E779EC1882309F48CC1823009F09CC158
:102720008091040381118FC1809106038F702FEF78
:10273000280F263008F090C18093E9002091EB002B
:1027400020FF81C1933031F48091EB00806280934F
:10275000EB0079C19091EB0090619093EB0021E048
:1027600030E001C0220F8A95EAF72093EA00109228
:10277000EA008091EB008860EACF81116DC1109171
:1027800004031F778091E3008078812B8093E3001E
:102790008091E800877F8093E8000E9494038091F5
:1027A000E80080FFFCCF8091E30080688093E30025
:1027B00082E0111183E0809300034EC18058823083
:1027C00008F04AC140910403509105034C3D83E059
:1027D0005807A1F583E08A838AE289834FB7F8948A
:1027E000DE01139620E03EE051E2E32FF0E050934B
:1027F0005700E49120FF03C0E295EF703F5FEF7058
:102800008E2F90E0EA30C0F0C7968D939D932F5F96
:10281000243159F74FBF8091E800877F8093E8000B
:102820006AE270E0CE0101960E9440048091E800C7
:102830008B778093E80010C1C096E7CF80910603A4
:1028400090910703252F33272330310509F44AC01F
:1028500078F52130310509F479C08BE590E0ECE59D
:10286000F5E02230310509F0F7C02091E800277F1C
:102870002093E80020910803309109038217930701
:1028800008F49C0140E02115310509F064C04111B4
:1028900062C08091E80082FDC9CF80910003882347
:1028A00029F2853019F28091E80083FFF2CFBECF84
:1028B0002132310509F43BC02232310509F0CCC088
:1028C0008330910508F0C8C0FC01EE0FFF1FE555ED
:1028D000FE4F0190F081E02D88559E4FDC018C91D8
:1028E00090E011C0CA019927413089F082309105EA
:1028F000B1F0892B09F0B0C0EBEEF5E0E4918E2F3A
:1029000090E0EBEEF5E0009709F4A6C0AECFE9ED5C
:10291000F5E0E4918E2F90E0E9EDF5E0F4CFE9ECFD
:10292000F5E0E4918E2F90E0E9ECF5E0ECCF833018
:10293000910508F091C0880F991FFC01EF54FE4FDC
:102940000190F081E02D89E090E08FCF82E190E06E
:10295000E7EBF5E08ACF80910003882309F466CF86
:10296000853009F463CF8091E80083FD5FCF8091CB
:10297000E80082FD8ECF8091E80080FF84CF9091A7
:10298000F3008091F2002115310519F0883091058E
:1029900050F041E0089709F040E08091E8008E7720
:1029A0008093E80070CF44914093F100319621501C
:1029B00031090196E8CF803809F04EC08091E800D7
:1029C000877F8093E800809101038093F1009ECE81
:1029D000811142C0109104031230F0F58091E8009B
:1029E000877F8093E800109301030E9494031123D2
:1029F00011F084E005C08091E30087FDFACF81E00B
:102A00008093000342E061EC81E00E94B30342E264
:102A100061EC84E00E94B30342E261EC82E00E9438
:102A2000B30342E260EC83E00E94B30380910003B1
:102A300013C080910403813079F481E0933009F070
:102A400080E08093FF021092E9008091E800877F88
:102A50008093E8000E9494038091E80083FF0AC0FD
:102A60008091E800877F8093E8008091EB0080628E
:102A70008093EB00AA96E3E00C94F42D1092F302FD
:102A80000E9453122FEF84E39CE02150804090403D
:102A9000E1F700C0000088E19AE00FB6F894A8952D
:102AA000809360000FBE90936000FFCF882321F0D9
:102AB0000E94D9080E9401120895882339F090914C
:102AC000F302892B8093F3020E9401120895882358
:102AD00081F19CEF980F913A28F40E9413050E940F
:102AE0000112089590E2980F983050F4877091E0A9
:102AF00001C0990F8A95EAF7892F0E94D908EFCF74
:102B00009BE5980F933028F490E080E00E949A05AE
:102B1000089598E5980F9B3128F490E080E00E949A
:102B20007405089593E3980F933118F460E00E94C0
:102B30009C0D0895CF93C82F8823B9F18CEF8C0F8B
:102B4000813AA8F580915301882301F18091EC022C
:102B500087FF1CC0EC2FE695E695E695F0E0EE5376
:102B6000FE4F828190E04C2F477021E030E002C0A0
:102B7000220F331F4A95E2F782239323892B81F09A
:102B80008C2F0E9413050E9401120AC0ECEBF1E0A9
:102B900082EC91E02191C21799F38E179F07D1F72C
:102BA0008C2F0E9440050E940112CF91089580E26F
:102BB0008C0F883068F4C77021E030E001C0220F2C
:102BC000CA95EAF78091F302822B8093F302EBCF50
:102BD0008BE58C0F833038F42C2F2452330BC90132
:102BE0000E949A05E2CFE8E5EC0FEB3150F4F0E0FB
:102BF000EE0FFF1FEC5AFE4F808191810E947405F9
:102C0000D4CF83E38C0F833180F661E08C2F0E9458
:102C10009C0DCBCF1F93CF93DF93182FEB010E9416
:102C20009A15209739F4812F0E946715DF91CF9173
:102C30001F9108958FE99FE00197F1F700C0000010
:102C40002197EFCFA6E0B0E0E8E2F6E10C94D72DB3
:102C500025E33AEF4EE85CE36091000170910101D9
:102C600080910201909103010E948D2C8B018E8333
:102C70009D8369831A838B839C8369817A818B818D
:102C80009C810E94682B6093A5027093A60280939A
:102C9000A7029093A80269817A818B819C810E940E
:102CA000CE2B6093A1027093A2028093A302909313
:102CB000A4022696E4E00C94F32DACE0B0E0E3E649
:102CC000F6E10C94CB2D8C01DC0114968C911497B9
:102CD000882309F4C6C021E04C9111965C911197AC
:102CE00012966C91129713967C91139715969C915E
:102CF0000E944F0D9C01F8018581882309F453C17E
:102D0000A90157574038510508F02BC6F22EFFE0B5
:102D1000F21708F496C08FEF93E00E94352E8111D0
:102D200090C05CE0A52E53E0B52EF11056C01A827B
:102D30001982FE01339686E0DF011D928A95E9F73C
:102D40004AE0442E6501BFEFCB1ADB0AC5010E94A1
:102D5000352E89831A82882309F473C0813009F0E3
:102D600084C07501E2E0EE0EF11CC6010E94352E12
:102D70008A83882309F465C09FEF980F9330D8F5B4
:102D8000F3E0AF0EB11CC7010E94352E8B83882360
:102D900009F457C01C82DE0111967D01F7012081E4
:102DA000222381F2213009F0A4C08181813009F011
:102DB0005EC06701F2E0CF0ED11CD70112968C9154
:102DC00070E060E0893311F460E570E00E940A165B
:102DD00076019FEFE91AF90AE1CFA11424E0B206C7
:102DE00081F1C5010E94352E811101C0FA943FEF97
:102DF000A31AB30A9ACF8430D9F432E0C32ED12C6F
:102E0000C7012FEFE21AF20A0E94352EE1E0F0E04E
:102E1000EC0FFD1FEC0DFD1D8083882391F08C3796
:102E200049F4E2E0F0E0EC0FFD1FEC0DFD1D108217
:102E30005701B1CF3FEFC31AD30A87E0C816D104B8
:102E4000F9F680910F02877061F0D80115968C9188
:102E5000882339F08091ED0282FF03C082E00E9456
:102E6000CA092C96E0E10C94E72D560194CF8230EC
:102E700041F46701B2E0CB0ED11C82810E949A1509
:102E8000A7CF833051F46701F2E0CF0ED11CD701F8
:102E900012968C910E9467159BCF843021F0BFEF72
:102EA000EB1AFB0A96CF2281C70102967C0190E0C3
:102EB00080E0A7014F5F5F4F2053330B2A3031056D
:102EC00058F0009709F485CFEFE9FFE03197F1F76B
:102ED00000C000000197F5CF489EB001499E700DDB
:102EE0001124C901860F971FD70111962C917A01E1
:102EF000E0CFE22FF0E0E850FE4F5490822F86950D
:102F00008695869590E0FC01E851FE4F649027700D
:102F1000712C022E02C0759467940A94E2F7F1E0D6
:102F20006F227724FC01E852FE4F8490912C022EF0
:102F300002C0959487940A94E2F731E083229924A1
:102F4000FC01E853FE4FC490D12C02C0D594C79425
:102F50002A95E2F781E0C822DD246114710419F09A
:102F600081EE0E949A158114910419F086EE0E9458
:102F70009A1570E060E0852D0E940A168114910474
:102F800019F086EE0E9467156114710419F081EE44
:102F90000E946715CD2809F41CCF70E060E08CE238
:102FA0000E940A1616CFF901E154FE47EF30F105F1
:102FB00008F0C9C4E755F14D0C94282E882389F0F8
:102FC00081E08093E7018093AC02D80112968D9145
:102FD0009C919093E6018093E50181E00E94E109D4
:102FE00030CF1092AC0281E00E94BD098091E701D0
:102FF000882391F0F801828193812091E50130913D
:10300000E601821B930B883C910530F48AE80E940C
:103010009A158AE80E9467151092E70112CF88235B
:1030200079F081E08093E4018093AB02D80112969D
:103030008D919C919093E3018093E20182E0CECF49
:103040001092AB0282E00E94BD098091E4018823C6
:1030500091F0F801828193812091E2013091E301A6
:10306000821B930B883C910530F48BE80E949A15E3
:103070008BE80E9467151092E401E3CE882379F073
:1030800081E08093E4018093AC02D80112968D9187
:103090009C919093E3018093E20183E09FCF109293
:1030A000AC0283E00E94BD098091E401882319F3FA
:1030B000F801828193812091E2013091E301821B2A
:1030C000930B883C9105B8F689E20E949A1589E233
:1030D000D0CF882379F081E08093E4018093AB0224
:1030E000D80112968D919C919093E3018093E20117
:1030F00084E074CF1092AB0284E00E94BD098091FD
:10310000E401882309F4B7CFF801828193812091EB
:10311000E2013091E301821B930B883C910508F09A
:10312000AACF8BE20E949A158BE2A3CF882309F4E1
:1031300088CE8BE80E949A158BE80E94671581EE75
:103140000E949A1584E20E949A1584E20E946715F3
:1031500084E20E949A1584E20E94671581EE0E9423
:10316000671580E50E949A1580E50E94671569CE73
:10317000882309F466CE8BE80E949A158BE80E949A
:10318000671581EE0E949A1585E20E949A1585E2E4
:103190000E94671586E20E949A1586E2DDCF882399
:1031A00009F44FCE8BE80E949A158BE80E946715B0
:1031B00081EE0E949A1580E20E949A1580E20E9498
:1031C000671581EED2CF882309F43BCE8BE80E94AD
:1031D0009A158BE80E94671581EE0E949A1586E386
:1031E0000E949A1586E30E94671581EE0E9467157A
:1031F00085E00E949A1585E00E94671585E10E948E
:103200009A1585E10E94671581EE0E949A1587E361
:103210000E949A1587E3D3CF882309F412CE8BE856
:103220000E949A158BE80E94671581EE0E949A15FC
:1032300084E30E949A1584E3C2CF882309F401CE67
:10324000809151019091520183589F4F8036F5E053
:103250009F0768F490930501809304018091040115
:10326000909105019093520180935101EACD8FE531
:1032700095E0F0CF882309F4E4CD8091510190913D
:1032800052018D5791098D37910520F78DE790E018
:10329000E1CF882309F4D5CD82EE94E0E3CF8823F3
:1032A00009F4CFCD20E030E040E450E4609100012B
:1032B0007091010180910201909103010E94222DE1
:1032C0006B017C0120E030E044EB53E46987DA864F
:1032D0008B87FC8669857A858B859C850E94C42DA9
:1032E00087FF0BC0C601D7018093000190930101B5
:1032F000A0930201B093030116C020E030E044EB3C
:1033000053E4C986DA86EB86FC8669857A858B85E7
:103310009C850E94212D6093000170930101809390
:103320000201909303010E9422168BCD882309F499
:1033300088CD20E030E040E450E4609100017091DD
:10334000010180910201909103010E94212D6B01E6
:103350007C0120E030E0A9016987DA868B87FC8652
:1033600069857A858B859C850E94282D87FFBACF39
:1033700020E030E044EB53E4C986DA86EB86FC8635
:1033800069857A858B859C850E94222DC4CF8823F0
:1033900009F457CD80E090E0A2E0B3E4A5CF10920D
:1033A000E7011092E40126319CE73907E1F48091AE
:1033B000F3028A7A91E009F490E09093E801811198
:1033C00006C089E20E9440050E9401123ACD85E3C1
:1033D000F9CF8091E801811104C089E20E941305B0
:1033E000F3CF85E3FBCF2737ACE73A0709F46FC08B
:1033F0002837BCE73B0709F473C08823A9F02A35B6
:10340000ECE73E0709F49BC008F070C021308CE760
:10341000380709F492C023309CE7390709F487C0C4
:1034200021153C4709F474C0F8018581C080D18022
:10343000882309F488C0C6010E94EE0CF82E682F7C
:10344000C6010E948009B6018F2D0E94CF0C0E94F8
:10345000C1077C01882ED80115967C901597169689
:10346000CC90C2942FE0C22280910F02877009F1A4
:10347000972C7720F9F08F2D807F803469F080E2DF
:103480008E0D8830B0F08F2D807E803229F4B1E02F
:10349000BE1578F4CC2069F08091ED0282FF09C05E
:1034A00082E00E94CA0980910F0287709924939448
:1034B0008111912C8F2D82958F70A82EB12C8C307C
:1034C00008F0AAC0F501E854F14D0C94282E81E0D3
:1034D0000E94E10943E062E081E00E949D09B1CCD5
:1034E000882311F082E0F4CF82E038C22B35BCE7AC
:1034F0003B0739F12C353C4709F096CF8091ED021E
:1035000082FB882780F991E089270E949B0E8CCF4F
:103510001092F3020E945312FFEF24E33CE0F150BB
:1035200020403040E1F700C000000E949D046FEF92
:103530007FEF90E080E00E94712E0E943E1581E0B6
:10354000E4CF80E0E2CFC6010E943A09F82E7BCF9B
:10355000EF2DEF70DE2E8F2D807F19F0D29490EF3B
:10356000D9228E2D7720B9F0DD2069F090E29E0DF2
:10357000983010F0E11009C08091F302D82AD0925F
:10358000F3020E9401128E2D45C080911102D82AAB
:10359000D0921102F6CF0E946715DD20E9F180E29A
:1035A0008E0D883010F0811004C08D2D0E94D90836
:1035B00006C0D09480911102D822D09211020E94AC
:1035C00001122AC0FF2DFF70DF2E8F2D807F8032E9
:1035D00019F0D29480EFD8228E2D882059F021E066
:1035E000821609F47BC0772009F487C0CC2009F447
:1035F00049C0C9CF8091ED0282FD40C07720C1F162
:10360000DD2039F08091F302D82AD092F3020E9493
:10361000011280E00E949A1528E0A21AB10834E055
:10362000A316B10410F40E94CF059920B1F0809147
:103630000F0280FD12C0D80115961C9286958695C2
:1036400086950E94E109C8010E945D1680910F02D3
:103650008695869586950E94BD0920E0F8014081F7
:10366000518162817381848195810E944F0DF9CBD4
:1036700080E00E946715DD2079F297CF7720A1F0D6
:10368000C11004C08D2D0E945D15C6CF31E0C3125C
:10369000C3CF809110029D2D9823D91609F4BCCF79
:1036A000D82AD0921002B8CFC110B6CF8D2D0E946B
:1036B0005615909110028D2D892329F08D2D80951E
:1036C0008923809310028091E9019D2D982309F4AC
:1036D000A3CFD094D822D092E9019ECF772029F0B1
:1036E00085E08C1508F498CFCDCF94E09C1508F4B4
:1036F00093CF8D2D0E9456158FCFCC20D1F38933D7
:1037000049F4AFEFB7EEE3E0A150B040E040E1F79D
:1037100000C000008E2D0E9467157ECF8F2D8695EC
:103720008695837061F0813009F076CFC701937080
:10373000711002C080E090E00E9474056DCFC70157
:103740009370711002C080E090E00E949A0564CFEF
:10375000672D8E2D0E949C0D5FCF8F2D837099F564
:1037600071105ACF4E2D429546954770440F440F25
:103770008E2D8F70042E01C0880F0A94EAF72E2D2B
:103780002071E4FE07C02FE030E001C0220F4A950F
:10379000EAF720953F2D369536953370323071F02B
:1037A000333051F040918302313029F0822B842351
:1037B0000E94ED0931CF842B822BFACF282B8091E8
:1037C00083028227F5CF8695772011F08F2D8170A7
:1037D000882309F421CF4E2D429546954770440F1A
:1037E000440F8E2D8F70042E01C0880F0A94EAF7C3
:1037F0002E2D2071E4FE07C02FE030E001C0220F23
:103800004A95EAF720953F2D36953695337032303C
:1038100071F0333051F040918402313029F0822B25
:1038200084230E949A09F8CE842B822BFACF282B6E
:10383000809184028227F5CFFF2DFF70FF2E772025
:1038400029F08F2F0E94E1098E2D1DCF8E2D0E9411
:1038500056158F2D0E94BD09DFCE8E2D22EF8216C8
:10386000B1F1281570F030EF8316D1F091EF891681
:1038700091F0772009F457C0C11085CE8F2D8F713C
:103880002AC0A3EF8A1651F1B4EF8B12F2CF9091B8
:10389000ED0292FD2FC08F2D8F717720D9F21BC0C2
:1038A000772081F0E4E0EC1508F4B6CE2F2D2F71CF
:1038B00081E090E001C0880F2A95EAF79091840298
:1038C0008927AFCFF5E0FC1508F4A6CEEFCF8F2DFA
:1038D0008F717110BFCF0E94E1099ECE80E07720EA
:1038E00009F49FCF9F2D9F7181E001C0880F9A95A9
:1038F000EAF797CF772061F08F2D8F7192FFEBCF92
:1039000098E0899F90011124236020930F02E3CF58
:1039100081E00E94CA09A1E0AC1508F07DCE82E0EA
:103920000E94CA0979CECC2059F0893309F0F2CE31
:10393000BFEFE7EEF3E0B150E040F040E1F7E8CE52
:103940008F2D8F7187CF2631FCE73F0709F441CDDA
:1039500027379CE7390709F04BCD81E00E94BD096C
:10396000B9CDF901E154FE47EF30F10508F017CD6C
:10397000EC53F14D0C94282ECF93DF9380910E02DF
:10398000807F09F04DC080910D02882309F448C062
:10399000E091430350910A03C0910902D0910802BB
:1039A00060910A0270910B0247E05E17C9F18E2FF9
:1039B00090E0E49FF0011124E55FFC4F2481222375
:1039C00091F1489FF001499FF00D1124DF01A55F9F
:1039D000BC4F11962C9111972C1325C02C912D13AF
:1039E00022C015962C91159721111DC012962D916C
:1039F0003C91261B370B283C3105A8F480910E0220
:103A00008F70806180930E02EF5EFC4F80818F701B
:103A10008061808388E092E00E945D160E94080920
:103A2000DF91CF910895FC013196E770BECFADE0F4
:103A3000B0E0EDE1FDE10C94CF2D8C0186E0F801C2
:103A4000DE01189601900D928A95E1F7F8018481C4
:103A5000E58098E0A92E92E0B92E90910C02911188
:103A600028C0882319F1EE20F1F0C8010E94280D2A
:103A7000F82E8823C1F087E0F801D50101900D925E
:103A80008A95E1F780910C02813031F4809108022F
:103A9000909109020E94190D0E94BC1C8F2D2D9639
:103AA000ECE00C94EB2DC8010E945D16FF24F3940A
:103AB000F5CFD080C18082809380F0900D0220915C
:103AC0000A0230910B02A401421B530BFF2009F4A0
:103AD000BCC0483C510508F092C08823F9F290918F
:103AE000090280910E02282F207F09F056C0C912CA
:103AF00014C090910802D91210C0E11048C08F7014
:103B0000806180930E0288E092E00E945D168091B1
:103B10000E02F8018683F12CC1CFE11038C06C2D64
:103B20008D2D0E9426036C2D8D2D0E942603E82EDC
:103B30008111F1CFD886C986888599850E94190D93
:103B4000292F22952F70903458F49F70223088F0DE
:103B5000992399F0F8019681907F79F4FE2C9ECFFD
:103B60002A5F2F70223068F0C8010E945D16EF2C8A
:103B7000F5CF992311F0882389F3805E883070F3A4
:103B8000F3CF803F58F3815F833040F3EDCF8091D6
:103B90000E02816080930E02BECFC91207C09091C1
:103BA0000802D91203C0EE2009F470C0C8010E94B7
:103BB000280D882309F477CFEE2009F474CF809183
:103BC0000E02803288F020910802309109023A8377
:103BD00029839C828B8290910C029D831E828F830D
:103BE000CE0101960E945D1687E0F801A8E0B2E0E0
:103BF00001900D928A95E1F70E94BC1C57CF9091DD
:103C00000E02292F207F51F488E092E00E945D1679
:103C100087E0F50111928A95E9F77DCF882309F4B1
:103C20003DCF809109028C11C1CF80910802D8123A
:103C3000BDCFE110BBCF9683C8010E945D1687E01F
:103C4000F50111928A95E9F729CF483C5105B8F75B
:103C5000882309F42BCFFE2CEE2009F424CF809189
:103C600009028C1120C080910802D8121CC08091DA
:103C70000E0280FD0FC0982F907F61F08683903FE9
:103C800031F0982F907F905F8F70892B8683C801C9
:103C90000E945D1687E0F801A8E0B2E001900D9265
:103CA0008A95E1F7FBCEC8010E94280D81119CCFB7
:103CB00080910E02816080930E02C8010E945D1601
:103CC000EDCEABE1B0E0E7E6FEE10C94D72D4E8BF4
:103CD0005F8B688F798F8A8F192F9B8F911110922C
:103CE00011021D8A86E0FE017696DE011F96019084
:103CF0000D928A95E1F70A8D002341F021E04F856E
:103D0000588969897A89C8010E944F0D0B8B1C8BD9
:103D100087E0FE013F96DE01189601900D928A958C
:103D2000E1F7CE0108960E94171D81110CC087E0B3
:103D3000FE013896DE01119601900D928A95E1F709
:103D40004C8541110BC017E08091430390910A0309
:103D5000891334C06B96E4E00C94F32D20910A0390
:103D600030E0C90101968770992750914303581795
:103D70001906A1F04D8397E0929FD001939FB00D5B
:103D80001124A55FBC4FFE01319601900D929A95CA
:103D9000E1F780930A030E940809D5CF1092F3023D
:103DA0000E94531210920A031092430387E0E8E046
:103DB000F2E0DF011D928A95E9F7C5CF819FC0012E
:103DC0001124855F9C4F0E94171D882319F2809152
:103DD000430390E001968770992780934303B4CF03
:103DE000ACE0B0E0E6EFFEE10C94D22D80E00CEF09
:103DF00093E0F92EEE24E3942DEFD22E32E0C32E81
:103E00009091D2022091D102291709F448C0E92FDC
:103E1000F0E0ED52FD4F808187FBBB24B0F8182FF6
:103E20001F779F5F93709093D2029091D0029F5F13
:103E30009093D00287FD08C01F8308870E94DA0490
:103E40009A878987FB8607C01F83D8860E94DA0479
:103E50009A878987CB86EC864F81588569857A85D4
:103E60008B859C850E94611E1983BB2089F0DA82B4
:103E70000E94DA049C838B83CD821E8249815A8101
:103E80006B817C818D819E810E94611E81E0B8CF13
:103E90000A830E94DA049C838B83FD82EECF2C96EA
:103EA000E9E00C94EE2DA6E0B0E0E9E5FFE10C942A
:103EB000D72D0E94DA048C0180913A0290913B0246
:103EC0008017910781F019821A820E94DA04682F04
:103ED00049815A81792F80E090E00E94611E109301
:103EE0003B0200933A022696E4E00C94F32D1F92D5
:103EF0000F920FB60F9211242F933F934F935F931E
:103F00006F937F938F939F93AF93BF93CF93DF93E1
:103F1000EF93FF93D091E900DF708091EC00C82F00
:103F2000C17080FDC0E81092E9008091F000877FA9
:103F30008093F00078940E9482121092E9008091A0
:103F4000F00088608093F000CD2BCF70C093E90023
:103F5000FF91EF91DF91CF91BF91AF919F918F91A1
:103F60007F916F915F914F913F912F910F900FBE75
:103F70000F901F9018951F920F920FB60F92112459
:103F80002F933F934F935F936F937F938F939F9361
:103F9000AF93BF93EF93FF938091E10082FF09C03D
:103FA0008091E20082FF05C08091E1008B7F8093C9
:103FB000E1008091DA0080FF24C08091D80080FF6A
:103FC00020C08091DA008E7F8093DA008091D90042
:103FD00080FF9BC080E189BD82E189BD09B400FEFC
:103FE000FDCF81E0809300038091F202811109C02E
:103FF0000E9444030E94E5038091E2008460809364
:10400000E2008091E10080FF17C08091E20080FF14
:1040100013C08091E2008E7F8093E2008091E200E5
:1040200080618093E2008091D80080628093D80004
:1040300019BC85E0809300038091E10084FF29C0D2
:104040008091E20084FF25C080E189BD82E189BDC5
:1040500009B400FEFDCF8091D8008F7D8093D800F9
:104060008091E1008F7E8093E1008091E2008F7E5D
:104070008093E2008091E20081608093E200809171
:104080000103882309F447C084E0809300038091F2
:1040900000038091E10083FF27C08091E20083FF4D
:1040A00023C08091E100877F8093E10082E08093CC
:1040B0000003109201038091E1008E7F8093E10064
:1040C0008091E2008E7F8093E2008091E200806127
:1040D0008093E20042E060E080E00E94B3038091C0
:1040E000F00088608093F000FF91EF91BF91AF9155
:1040F0009F918F917F916F915F914F913F912F9100
:104100000F900FBE0F901F90189519BC10920003CE
:104110001092F20276CF8091E30087FD02C081E029
:10412000B4CF83E0B2CF78941F921FB61F921124B0
:104130008F939F93AF93BF938091EE029091EF0284
:10414000A091F002B091F1020196A11DB11D8093E2
:10415000EE029093EF02A093F002B093F102BF91B0
:10416000AF919F918F911F901FBE1F901895CDB753
:10417000DEB7C654D1090FB6F894DEBF0FBECDBF6F
:1041800085B7806885BF85B7806885BF84B7877F1E
:1041900084BF0FB6F894A8958091600088618093E1
:1041A0006000109260000FBE80E890E00FB6F894B7
:1041B00080936100909361000FBE81EB96E0909335
:1041C000B9018093B8010E9444030E94E5038091E5
:1041D000E20084608093E200789480910003882359
:1041E000A1F01091E9001F709091EC00892F81706F
:1041F00090FD80E8182B1092E9008091E80083FD83
:104200000E9482121F701093E90082E084BD93E047
:1042100095BD9AEF97BD80936E000E944E0C811160
:1042200002C00E943E0C8CE291E02091E300122F2C
:10423000111F1127111F27FD0CC0AFE3BCE9119717
:10424000F1F700C00000019781F70E94440310922B
:1042500000031093E4021093E5021093460111113C
:104260000E94052AEFECF2E088E0DF011D928A95BA
:10427000E9F78091460191E089278093920280912D
:104280004601909395028091460160E080E00E9493
:10429000720661E080E00E947206EFE8F1E031977B
:1042A000F1F700C0000010E080919502181708F4A3
:1042B000CAC0809146018091460195E0811190E04D
:1042C0009093820285E0891B809381020CE811E0C3
:1042D000D8018D918D018F3F11F00E94B706B1E09A
:1042E00001391B07A9F701E911E098E9E92E91E0EE
:1042F000F92EF80181918F018F3F11F00E94B706CE
:10430000E016F106B1F78AE0E9EBF2E0DF01282FD1
:104310001D922A95E9F7E7E7F2E0DF011D928A9501
:10432000E9F790E080E00E943D2E853E9E4F21F40B
:104330000E944E0C811163C065EE7EEF90E080E03C
:104340000E94712E60E082E090E00E94532E81E096
:104350008093830261E083E090E00E94532E60E04E
:1043600074E184E090E00E94712E60E086E090E0CD
:104370000E94532E60E087E090E00E94532E40E0C0
:1043800050E0BA0188E090E00E94652E60E083E290
:1043900090E00E94532E60E08CE090E00E94532E4B
:1043A00060E08DE090E00E94532E19821A821B82F9
:1043B0001C821D821E821F82188648E050E067E141
:1043C00070E0CE0101960E94432E40E050E0BA0119
:1043D0008FE190E00E94652E80E00E94530B0E94C6
:1043E0003E0C40E050E0BA018FE090E00E94652E64
:1043F00040E050E0BA0183E190E00E94652E82E047
:1044000090E00E94352E8093850284E090E00E9427
:104410003D2E9093ED028093EC020E944310EFE357
:10442000FCE93197F1F700C000000E944310809131
:10443000B90280FF1AC06FEF7FEF90E080E00E942A
:10444000712E0E949D0460E0812F0E946106082F5A
:1044500061E0812F0E946106E12FF0E0ED56FD4FF3
:10446000880F802B80831F5F1FCF83E090E00E9426
:10447000352E0E94ED098091E402811102C00E9454
:10448000082A8091E50281110E94010B0E942216E8
:1044900087E491E09093E9028093E8028091000321
:1044A000853069F49091FF0280910003853009F412
:1044B00052C01092F3020E9453120E94CF050E9434
:1044C000431006E812E089EBE82E82E0F82E20E99E
:1044D00032E0D701F80191918D912E173F0709F431
:1044E0004CC09817C1F38090E402D12CF701C19021
:1044F0007F01D8019D908D019C1431F19C24B12C39
:10450000AA24A394892D8A21B9F08820A9F0B98220
:10451000DA820E94DA049C838B83B1E0BD8391E050
:104520008C2D8A2109F490E09E8349815A816B8108
:104530007C818D810E94611EB394AA0CE7E0BE12BB
:10454000E1CFF8013197C082D394FAE0DF12CECFE9
:104550000E94BD0416C080910003992309F4A4CFE2
:104560000E944310E9EBF2E081918111BCC683EC1B
:1045700092E08E179F07C1F795CF9813B4CF0E9492
:10458000531FE090E402EE2019F00E94F01EE82E86
:1045900080919602882351F0109296028091D10268
:1045A0008093D2028091CF028093D002F12C3BC045
:1045B00061E08F2D0E946106182F60E08F2D0E9410
:1045C0006106E12FEE0F8E2B0F2D10E0D801AD56B6
:1045D000BD4FEC919E2F9370891721F1EE0FEE0FD6
:1045E000E82BEC93809192028F0DEF70F0E0E8568B
:1045F000FE4F00571D4FD080D8019C91D90EB1E0DD
:1046000060E0BD1524F0EFEFDE161CF461E00E94BF
:104610008C068D2DDD0C990B62E070E00E94142E4B
:10462000D8018C93F39480919502F81608F280914A
:10463000E402882309F48DC60E94F01E811101C096
:10464000E1100E94BD048091E402882309F4B1C204
:104650004091B4025091B5026091B6027091B702D8
:104660002FB7F8948091EE029091EF02A091F002A2
:10467000B091F1022FBF481759076A077B0709F469
:1046800098C20E94BD046093B4027093B5028093F7
:10469000B6029093B7028091E502882309F485C39E
:1046A0004091C9025091CA026091CB027091CC0234
:1046B0008091CD029091CE020E94D60A2093C90229
:1046C0003093CA024093CB025093CC026093CD0248
:1046D0007093CE0286E0E9ECF2E0DE019D96019057
:1046E0000D928A95E1F786E0FE01BD96DE01979670
:1046F00001900D928A95E1F786E0FE01B796DE0102
:10470000119601900D928A95E1F786E0FE013196AF
:10471000A9ECB2E001900D928A95E1F786E0E9EC10
:10472000F2E0DE019D9601900D928A95E1F786E018
:10473000FE01BD96DE01119601900D928A95E1F77A
:10474000EFA4F8A88091AC0202E513E081110AC041
:104750008091AB020091510110915201882311F018
:1047600004EF11E08091A9029091AA0280179107AD
:1047700061F08091E502882309F421C3C8010E94F9
:10478000750A1093AA020093A9028E2DEE0C990BC4
:10479000AA0BBB0B23968CAF9DAFAEAFBFAF2397D9
:1047A000BC01CD010E94652D24966FAF24972596FC
:1047B0007FAF259726968FAF269727969FAF27978F
:1047C0004090A5025090A6026090A7027090A802A7
:1047D0008F2DFF0C990BAA0BBB0B23968CAF9DAFB3
:1047E000AEAFBFAF2397BC01CD010E94652D062F50
:1047F000F72EE82ED92E8090A1029090A202A090D0
:10480000A302B090A402A301920124969FAD249725
:104810009FAF2596AFAD25972196AFAF21972696EE
:10482000BFAD26972296BFAF22972796EFAD279769
:104830002396EFAF239723966CAD7DAD8EAD9FADE4
:1048400023970E948D2C162FC72E382E292EA501B6
:1048500094010FAF2196FFAE21972296EFAE2297DB
:104860002396DFAE239723966CAD7DAD8EAD9FADC5
:1048700023970E948D2C9B01AC011FAF2196CFAED8
:10488000219722963FAE229723962FAE2397239609
:104890006CAD7DAD8EAD9FAD23970E94212D1B0188
:1048A000C82E192FA30192010FAF2196FFAE2197B9
:1048B0002296EFAE22972396DFAE239723966CAD18
:1048C0007DAD8EAD9FAD23970E948D2CD62EE72E09
:1048D000F82E092F8091AC02882309F475C22DECC3
:1048E0003CEC4CEC5DE32FAE21963FAE2197229637
:1048F000CFAE229723961FAF239723966CAD7DAD45
:104900008EAD9FAD23970E948D2C20919D023091FA
:104910009E0240919F025091A0026FAF21967FAFFF
:10492000219722968FAF229723969FAF23972396A6
:104930006CAD7DAD8EAD9FAD23970E94222D3B01C6
:10494000C82E192FA50194012496FFAD2497FFAF1F
:1049500025968FAD259721968FAF219726969FADEF
:10496000269722969FAF22972796AFAD279723963B
:10497000AFAF239723966CAD7DAD8EAD9FAD2397E2
:104980000E948D2C2D2D3E2D4F2D502F6FAF219637
:104990007FAF219722968FAF229723969FAF2397C1
:1049A00023966CAD7DAD8EAD9FAD23970E94222DD9
:1049B0002DEC3CEC4CEC5DEB6FAF21967FAF21977B
:1049C00022968FAF229723969FAF239723966CADA5
:1049D0007DAD8EAD9FAD23970E948D2C20919902C5
:1049E00030919A0240919B0250919C026FAF2196A8
:1049F0007FAF219722968FAF229723969FAF239761
:104A000023966CAD7DAD8EAD9FAD23970E94222D78
:104A10005B01D82EE92E6FAE21967FAE21972296AC
:104A2000CFAE229723961FAF239723966CAD7DAD13
:104A30008EAD9FAD23970E942D2D062FAFAE2196F0
:104A4000BFAE21972296DFAE22972396EFAE239733
:104A500023966CAD7DAD8EAD9FAD23970E942D2D1D
:104A6000F62E802F002E000C990BAA0BBB0B239661
:104A70008CAF9DAFAEAFBFAF2397BC01CD010E94FD
:104A8000652D9B01AC016FAE21967FAE21972296DA
:104A9000CFAE229723961FAF239723966CAD7DADA3
:104AA0008EAD9FAD23970E94212D60939D02709340
:104AB0009E0280939F029093A0028F2D0F2C000CDA
:104AC000990BAA0BBB0B23968CAF9DAFAEAFBFAFBC
:104AD0002397BC01CD010E94652D9B01AC01AFAEB7
:104AE0002196BFAE21972296DFAE22972396EFAE96
:104AF000239723966CAD7DAD8EAD9FAD23970E941D
:104B0000212D6093990270939A0280939B02909357
:104B10009C0260E010E01B836C83FD820E8386E0C4
:104B2000FE013196DE01919601900D928A95E1F792
:104B30001BA36CA3FDA20EA386E0FE01B196DE01CD
:104B4000D39601900D928A95E1F71DAB6EABFFAA4B
:104B500008AF86E0FE01F396DE01119601900D92FA
:104B60008A95E1F71B836C83FD820E8386E0FE014C
:104B70003196A9ECB2E001900D928A95E1F786E0BA
:104B8000EEEDF2E0DE01D99601900D928A95E1F703
:104B90008091CA029AAD892B8093CA020E94730D3C
:104BA000811157C28091AD021092AD0280FD0E942A
:104BB000BD0486E0EEEDF2E0DE01119601900D926B
:104BC0008A95E1F71092E0021092E1021092E2025F
:104BD0001092E3028B819C81892B09F447C080915C
:104BE000DC029091DD020E94AE049C018091D7020C
:104BF000882309F4A9C325313105C0F18F3F19F08D
:104C00008F5F8093D7021B81112359F00E941D06EC
:104C10009FEF11160CF491E0899F802D1124809351
:104C2000E0021C81112359F00E941D069FEF11160E
:104C30000CF491E0899F802D11248093E1028091F2
:104C4000E002882399F01091E102112379F00E948B
:104C50003D06882309F400C28093E002812F0E9460
:104C60003D06882309F4FCC18093E1028D819E8179
:104C7000892B09F447C08091DA029091DB020E94EF
:104C8000AE049C018091D802882309F458C32135D1
:104C90003105C0F18F3F19F08F5F8093D8021D81DD
:104CA000112359F00E94FB059FEF11160CF491E0BF
:104CB000899F802D11248093E2021E81112359F0D7
:104CC0000E94FB059FEF11160CF491E0899F802D47
:104CD00011248093E3028091E202882399F01091DD
:104CE000E302112379F00E943D06882309F4BCC138
:104CF0008093E202812F0E943D06882309F4B6C109
:104D00008093E302BE016F5F7F4F8EED92E00E94C1
:104D1000E60481110CC08091E0029091E102892BA0
:104D20009091E202892B9091E302892B11F00E946D
:104D3000E00586E0FE013196AEEDB2E001900D9205
:104D40008A95E1F70E94CF059091B802891721F06A
:104D50008093B8020E94BD0480910003843009F062
:104D60009DCB83E08093E9008091E80082FF96CBA1
:104D70008091E80090E085FF06C00E9463038823CD
:104D800009F478C191E08091E8008B778093E80086
:104D9000992309F483CBE981E150E53108F093C10F
:104DA000F0E0ED52F14D0C94282E86E0EEEAF2E0B0
:104DB000A9ECB2E001900D928A95E1F78BCC1093AB
:104DC000980200939702DDCC2FAE21963FAE21973B
:104DD0002296CFAE229723961FAF239723966CADD2
:104DE0007DAD8EAD9FAD23970E942D2D162F809106
:104DF000AB02882309F408C1812F110F990BAA0B6C
:104E0000BB0B23968CAF9DAFAEAFBFAF2397BC015A
:104E1000CD010E94652D1B01C82E192FA5019401FB
:104E20006FAF21963FAE219722968FAF22972396A0
:104E30009FAF239723966CAD7DAD8EAD9FAD23972D
:104E40000E948D2C24966FAF249725967FAF2597CF
:104E500026968FAF269727969FAF27972D2D3E2D0D
:104E60004F2D502F6FAF21967FAF219722968FAF96
:104E700022972796AFAD27972396AFAF2397239618
:104E80006CAD7DAD8EAD9FAD23970E94222D6FAF8F
:104E900021967FAF219722968FAF229723969FAFBF
:104EA000239723966CAD7DAD8EAD9FAD23970E9469
:104EB0002D2D862F660F990BAA0BBB0B23968CAF5B
:104EC0009DAFAEAFBFAF2397BC01CD010E94652D52
:104ED0007B01082FD92EA30192012FAE21963FAE60
:104EE00021972296CFAE229723961FAF2397239622
:104EF0006CAD7DAD8EAD9FAD23970E948D2C1B01B7
:104F0000C82E192FA5019401EFAE2196FFAE21976F
:104F100022960FAF22972396DFAE239723966CAD90
:104F20007DAD8EAD9FAD23970E948D2C9B01AC0172
:104F30002FAE21963FAE21972296CFAE2297239691
:104F40001FAF239723966CAD7DAD8EAD9FAD23979C
:104F50000E94212D6FAF21967FAF219722968FAFB0
:104F6000229723969FAF239723966CAD7DAD8EAD90
:104F70009FAD23970E942D2D162FA3019201EFAE16
:104F80002196FFAE219722960FAF22972396DFAE90
:104F9000239723966CAD7DAD8EAD9FAD23970E9478
:104FA0008D2C24962FAD249725963FAD25972696D8
:104FB0004FAD269727965FAD27976FAF21967FAFAE
:104FC000219722968FAF229723969FAF2397239600
:104FD0006CAD7DAD8EAD9FAD23970E94222D6FAF3E
:104FE00021967FAF219722968FAF229723969FAF6E
:104FF000239723966CAD7DAD8EAD9FAD23970E9418
:105000002D2D00E0F12C87CDA501940124969FADB4
:1050100024979FAF2596AFAD25972196AFAF2197E7
:105020002696BFAD26972296BFAF22972796EFAD63
:1050300027972396EFAF239723966CAD7DAD8EAD6A
:105040009FAD23970E948D2C2D2D3E2D4F2D502F3F
:10505000B4CF81E090E0A8CDF1E0F093E002FECD86
:1050600021E02093E10202CE81E042CE91E09093D4
:10507000E30248CE00E210E0DE0111967D0180914E
:10508000E80085FD0AC08091E8008B778093E800F6
:105090000E946303882399F375CE8091F100F70194
:1050A00081937F010150110951F76CCE1A828CE077
:1050B0008B831BC08A81833009F140F4813069F011
:1050C000823009F433C18FEF89830FC08430D9F760
:1050D0001B821C821D821E8208C00E94BD040E9489
:1050E0002E2E6B837C838D839E8340E250E0BE0135
:1050F0006F5F7F4F82E00E94F009D0C92B81822F21
:1051000090E0FE013496245E8A30910570F7DC0150
:10511000A754BD4F3C91319301962813F5CFE5CFAD
:105120008A81823019F0853001F3CDCF8B819C814B
:10513000AD81BE8123968CAF9DAFAEAFBFAF23973D
:10514000BC01CD010E942E2E87E290E00E94532EDA
:10515000CCCF4C816B818A810E94A00C9827892733
:1051600098279E838D83C1CF2D813E8132272327AF
:1051700032274C816B818A810E94AE0BB6CF0E9490
:10518000D50BB3CF90E19A83B0CF1A8284EF90CF42
:105190000A811B81102701271027DE0111966D015E
:1051A000EC80FD01EE0DF11D7F01C801845F9C4F75
:1051B000CE14DF0409F499CF043F110558F40E947E
:1051C000352ED60114968C930F5F1F4FFFEFCF1A29
:1051D000DF0AEBCFF6011482F7CF0A811B8110277B
:1051E00001271027CE0101966C01EC80E00EF12E14
:1051F000F11CC801845F9C4F0E151F0509F475CF83
:10520000043F110528F4D60114966C910E94532E88
:10521000BFEFCB1ADB0A0F5F1F4FEBCF0E946C0B67
:1052200064CF85E08A8361CF0A811B811027012723
:105230001027FE0131966F01EC80CF018E0D911D7C
:105240007C01C8018896EC14FD0409F44ECF0C3B98
:10525000A2E01A0750F40E94352EF60184830F5FF6
:105260001F4FBFEFCB1ADB0AECCFD60114961C926E
:10527000F6CF0A811B81102701271027FE013196E6
:105280006F01EC80E00EF12EF11CC8018896E0164B
:10529000F10609F42ACF0C3BF2E01F0728F4D601EF
:1052A00014966C910E94532EBFEFCB1ADB0A0F5F4E
:1052B0001F4FEBCF41E08C81811101C040E06B8139
:1052C0008A810E94670C4ACF2D813E813227232795
:1052D000322741E08C81811101C040E06B818A81DD
:1052E0000E947C0B02CFE0E1E9BDF2E1F9BD09B417
:1052F00000FEFDCF8091D8008F7D8093D8008091F3
:10530000E00082608093E0008091E00081FDFCCFAE
:105310001092F3020E9453129FEFA3ECB9E0915058
:10532000A040B040E1F700C00000BCC887E290E0B8
:105330000E94352E1B821C821D828E83D6CE2B307E
:10534000310508F0A9CCDECC2B30310508F058CC63
:105350008DCCEE2009F42DCC74C98EE1489B02C09F
:105360008150E1F7489BFECF0895589880E28A95D6
:10537000F1F7589A0895FC013BE03A95F1F798E06F
:1053800020E080E031E040E14A95F1F7880F489B4A
:1053900002C08160232742E04A95F1F7000040E116
:1053A0004A95F1F7915079F790E19A95F1F799B113
:1053B00032E03A95F1F7000040E14A95F1F791703B
:1053C00092272081920F90830895A1E0B0E0EBEE48
:1053D000F9E20C94D52D19828C017C01E60EF11CAA
:1053E0000E151F0541F481E09981911180E021960D
:1053F000E6E00C94F12D0E94AD29CE0101960E94A9
:10540000BB29F80181938F01EBCF509A589A0895E8
:105410005098589AE89AE9E6F0E080818C7F808382
:1054200008956150770B91E001C0990F6A95EAF7F2
:1054300020E031E0911108C0222391F0589A80E2D7
:105440008A95F1F758980895492F482339F0589ACA
:10545000232740E24A95F1F79695ECCF5898F9CF7B
:105460005898EDCFFF920F931F93CF93DF93EC01EA
:105470008C01060F111DC017D10729F4CDB7DEB777
:10548000E5E00C94F22DF9900E94B52968E08F2D8B
:105490000E94112AF0CF1F920F920FB60F92112483
:1054A0000F931F932F933F934F935F936F937F932C
:1054B0008F939F93AF93BF93EF93FF93CF93DF931C
:1054C0000F92CDB7DEB719820E94AD29CE010196A9
:1054D0000E94BB29282F082F069506950695982F20
:1054E00092959570802F8570980F892F837096956F
:1054F0009695890F822787709981892B09F05CC066
:10550000093008F059C080E18A95F1F7589A509A0D
:1055100082E08A95F1F700C0589888E0089F8001E2
:105520001124D801AA5FBE4F1696ED91FC911797F2
:105530003097A9F060918A0170918B0114962D919A
:105540003C911597260F371F11968D919C911297BC
:10555000680F791F13964C9113978C910995F80158
:10556000EA5FFE4F6381662351F020918A013091FA
:105570008B0184819581820F931F0E94322A0E94A1
:10558000B52980E18A95F1F758985098589A80E1AA
:105590008A95F1F7F801EA5FFE4F6081662351F0CA
:1055A00020918A0130918B0181819281820F931F1A
:1055B0000E94E5290E94AD290F90DF91CF91FF91C4
:1055C000EF91BF91AF919F918F917F916F915F917B
:1055D0004F913F912F911F910F910F900FBE0F9000
:1055E0001F9018950F931F93CF93DF93EC010997AA
:1055F0000CF04CC0F894509A589885E08A95F1F7D1
:1056000000008C2F869585709C2F9570890F982FA0
:1056100093708695869523E0CC0FDD1F2A95E1F7E0
:10562000890F8E01082B0E94B52900C068E0802FE9
:105630000E94112A80E18A95F1F75098589A489B68
:105640001EC087E090E048991CC0FE01EA5FFE4F53
:1056500063816623F9F020918A0130918B01848166
:105660009581820F931F0E94E529811113C0509AE2
:10567000589A7894DF91CF911F910F91089500C0AF
:10568000DECF019729F4509A589A789480E0F2CFAF
:1056900000C0D9CF0E94AD2980E28A95F1F75898D1
:1056A000509A80E18A95F1F7CA5FDE4F68816623E0
:1056B00051F020918A0130918B0189819A81820F6A
:1056C000931F0E94322A0E94B529789481E0D2CF9C
:1056D0000E946F2BE3950C94982B0C94502C0E94F5
:1056E000B42BD8F3E894E0E0BB279F57F0F02AED05
:1056F0003FE049EC06C0EE0FBB0F661F771F881F07
:1057000028F0B23A62077307840728F0B25A620B96
:10571000730B840BE3959A9572F7803830F49A9561
:10572000BB0F661F771F881FD2F790480C94442C3C
:10573000EF93E0FF07C0A2EA2AED3FE049EC5FEB00
:105740000E94E72B0E94752C0F90039401FC905847
:10575000EFEEF5E00C94532C57FD9058440F551F75
:1057600059F05F3F71F04795880F97FB991F61F0E3
:105770009F3F79F087950895121613061406551F5A
:10578000F2CF4695F1DF08C0161617061806991FC6
:10579000F1CF869571056105089408959F930E9445
:1057A0006F2B0F9007FCEE5F0C94982B0E94672CD8
:1057B00038F00E946E2C20F039F49F3F19F426F443
:1057C0000C94502C0EF4E095E7FB0C943C2CE92F44
:1057D0000E94AC2B58F3BA1762077307840795072A
:1057E00020F079F4A6F50C94862C0EF4E0950B2E9F
:1057F000BA2FA02D0B01B90190010C01CA01A00123
:105800001124FF27591B99F0593F50F4503E68F17D
:105810001A16F040A22F232F342F4427585FF3CFBE
:10582000469537952795A795F0405395C9F77EF48F
:105830001F16BA0B620B730B840BBAF09150A1F0D8
:10584000FF0FBB1F661F771F881FC2F70EC0BA0F5E
:10585000621F731F841F48F4879577956795B795E6
:10586000F7959E3F08F0B0CF9395880F08F09927E1
:10587000EE0F97958795089597F99F6780E870E0F8
:1058800060E008959F3F31F0915020F4879577951F
:105890006795B795880F911D9695879597F9089507
:1058A0009FEF80EC08959F938F937F936F93FF9367
:1058B000EF939B01AC010E948D2CEF91FF910E9410
:1058C000FA2C2F913F914F915F910C948D2C0024D5
:1058D0000A941616170618060906089500240A9455
:1058E00012161306140605060895092E0394000CDB
:1058F00011F4882352F0BB0F40F4BF2B11F460FF6A
:1059000004C06F5F7F4F8F4F9F4F0895E894BB2770
:1059100066277727CB0197F908950E94A02C0C9455
:10592000752C0E94672C38F00E946E2C20F0952375
:1059300011F00C943C2C0C94502C11240C94872CBA
:105940000E94AC2B70F3959FC1F3950F50E0551F4B
:10595000629FF001729FBB27F00DB11D639FAA27C4
:10596000F00DB11DAA1F649F6627B00DA11D661F13
:10597000829F2227B00DA11D621F739FB00DA11D34
:10598000621F839FA00D611D221F749F3327A00DEE
:10599000611D231F849F600D211D822F762F6A2F8A
:1059A00011249F5750409AF0F1F088234AF0EE0FEF
:1059B000FF1FBB1F661F771F881F91505040A9F71C
:1059C0009E3F510580F00C943C2C0C94872C5F3F3B
:1059D000E4F3983ED4F3869577956795B795F79558
:1059E000E7959F5FC1F7FE2B880F911D96958795D0
:1059F00097F90895DF93CF931F930F93FF92EF9240
:105A0000DF927B018C01689406C0DA2EEF010E94C0
:105A1000A02CFE01E894A5912591359145915591D1
:105A2000A6F3EF010E94E72BFE019701A801DA948B
:105A300069F7DF90EF90FF900F911F91CF91DF9169
:105A400008955058BB27AA270E94E72B0C94752C69
:105A50000E94A02D08F481E008950E94342D6894DE
:105A6000B1110C94872C08950E94B42B88F09F5795
:105A700098F0B92F9927B751B0F0E1F0660F771F72
:105A8000881F991F1AF0BA95C9F714C0B13091F068
:105A90000E94862CB1E008950C94862C672F782FF5
:105AA0008827B85F39F0B93FCCF38695779567952D
:105AB000B395D9F73EF490958095709561957F4F99
:105AC0008F4F9F4F0895E89409C097FB3EF490953F
:105AD0008095709561957F4F8F4F9F4F9923A9F0C7
